{
  "address": "0xB9b24929D7FeA38F2368cB1Ff4a5024f96940126",
  "abi": [
    {
      "inputs": [
        {
          "internalType": "address",
          "name": "priceFeedAddress",
          "type": "address"
        }
      ],
      "stateMutability": "nonpayable",
      "type": "constructor"
    },
    {
      "inputs": [],
      "name": "NotOwner",
      "type": "error"
    },
    {
      "stateMutability": "payable",
      "type": "fallback"
    },
    {
      "inputs": [],
      "name": "MINUSD",
      "outputs": [
        {
          "internalType": "uint256",
          "name": "",
          "type": "uint256"
        }
      ],
      "stateMutability": "view",
      "type": "function"
    },
    {
      "inputs": [
        {
          "internalType": "address",
          "name": "",
          "type": "address"
        }
      ],
      "name": "addressToAmount",
      "outputs": [
        {
          "internalType": "uint256",
          "name": "",
          "type": "uint256"
        }
      ],
      "stateMutability": "view",
      "type": "function"
    },
    {
      "inputs": [],
      "name": "fund",
      "outputs": [],
      "stateMutability": "payable",
      "type": "function"
    },
    {
      "inputs": [
        {
          "internalType": "uint256",
          "name": "",
          "type": "uint256"
        }
      ],
      "name": "funders",
      "outputs": [
        {
          "internalType": "address",
          "name": "",
          "type": "address"
        }
      ],
      "stateMutability": "view",
      "type": "function"
    },
    {
      "inputs": [],
      "name": "i_owner",
      "outputs": [
        {
          "internalType": "address",
          "name": "",
          "type": "address"
        }
      ],
      "stateMutability": "view",
      "type": "function"
    },
    {
      "inputs": [],
      "name": "priceFeed",
      "outputs": [
        {
          "internalType": "contract AggregatorV3Interface",
          "name": "",
          "type": "address"
        }
      ],
      "stateMutability": "view",
      "type": "function"
    },
    {
      "inputs": [],
      "name": "withdraw",
      "outputs": [],
      "stateMutability": "nonpayable",
      "type": "function"
    },
    {
      "stateMutability": "payable",
      "type": "receive"
    }
  ],
  "transactionHash": "0x80e950deb0a64e904611778efaa7398ad1c8b0a717b7fa477c289cbe748cc06a",
  "args": [
    "0x694aa1769357215de4fac081bf1f309adc325306"
  ],
  "numDeployments": 1,
  "solcInputHash": "aba445f3220a7246238a8655c74f8bca",
  "bytecode": "0x60a060405234801561001057600080fd5b5060405162000ff138038062000ff183398181016040528101906100349190610115565b3373ffffffffffffffffffffffffffffffffffffffff1660808173ffffffffffffffffffffffffffffffffffffffff1660601b8152505080600260006101000a81548173ffffffffffffffffffffffffffffffffffffffff021916908373ffffffffffffffffffffffffffffffffffffffff16021790555050610142565b600080fd5b600073ffffffffffffffffffffffffffffffffffffffff82169050919050565b60006100e2826100b7565b9050919050565b6100f2816100d7565b81146100fd57600080fd5b50565b60008151905061010f816100e9565b92915050565b60006020828403121561012b5761012a6100b2565b5b600061013984828501610100565b91505092915050565b60805160601c610e8962000168600039600081816102fe01526105710152610e896000f3fe6080604052600436106100745760003560e01c8063741bef1a1161004e578063741bef1a1461010c578063b60d428814610137578063dba6335f14610141578063dc0d3dff1461016c57610083565b80633c7e7d281461008d5780633ccfd60b146100ca5780634dc93616146100e157610083565b36610083576100816101a9565b005b61008b6101a9565b005b34801561009957600080fd5b506100b460048036038101906100af91906107c1565b6102e4565b6040516100c19190610807565b60405180910390f35b3480156100d657600080fd5b506100df6102fc565b005b3480156100ed57600080fd5b506100f661053c565b6040516101039190610807565b60405180910390f35b34801561011857600080fd5b50610121610549565b60405161012e9190610881565b60405180910390f35b61013f6101a9565b005b34801561014d57600080fd5b5061015661056f565b60405161016391906108ab565b60405180910390f35b34801561017857600080fd5b50610193600480360381019061018e91906108f2565b610593565b6040516101a091906108ab565b60405180910390f35b6802b5e3af16b18800006101e8600260009054906101000a900473ffffffffffffffffffffffffffffffffffffffff16346105d290919063ffffffff16565b1015610229576040517f08c379a00000000000000000000000000000000000000000000000000000000081526004016102209061097c565b60405180910390fd5b6000339080600181540180825580915050600190039060005260206000200160009091909190916101000a81548173ffffffffffffffffffffffffffffffffffffffff021916908373ffffffffffffffffffffffffffffffffffffffff16021790555034600160003373ffffffffffffffffffffffffffffffffffffffff1673ffffffffffffffffffffffffffffffffffffffff16815260200190815260200160002060008282546102db91906109cb565b92505081905550565b60016020528060005260406000206000915090505481565b7f000000000000000000000000000000000000000000000000000000000000000073ffffffffffffffffffffffffffffffffffffffff163373ffffffffffffffffffffffffffffffffffffffff1614610381576040517f30cd747100000000000000000000000000000000000000000000000000000000815260040160405180910390fd5b60005b60008054905081101561042c5760008082815481106103a6576103a5610a21565b5b9060005260206000200160009054906101000a900473ffffffffffffffffffffffffffffffffffffffff1690506000600160008373ffffffffffffffffffffffffffffffffffffffff1673ffffffffffffffffffffffffffffffffffffffff1681526020019081526020016000208190555050808061042490610a50565b915050610384565b50600067ffffffffffffffff81111561044857610447610a99565b5b6040519080825280602002602001820160405280156104765781602001602082028036833780820191505090505b506000908051906020019061048c9291906106b7565b5060003373ffffffffffffffffffffffffffffffffffffffff16476040516104b390610af9565b60006040518083038185875af1925050503d80600081146104f0576040519150601f19603f3d011682016040523d82523d6000602084013e6104f5565b606091505b5050905080610539576040517f08c379a000000000000000000000000000000000000000000000000000000000815260040161053090610b5a565b60405180910390fd5b50565b6802b5e3af16b188000081565b600260009054906101000a900473ffffffffffffffffffffffffffffffffffffffff1681565b7f000000000000000000000000000000000000000000000000000000000000000081565b600081815481106105a357600080fd5b906000526020600020016000915054906101000a900473ffffffffffffffffffffffffffffffffffffffff1681565b6000806105de8361060e565b90506000670de0b6b3a764000082866105f79190610b7a565b6106019190610c03565b9050809250505092915050565b60008082905060008173ffffffffffffffffffffffffffffffffffffffff1663feaf968c6040518163ffffffff1660e01b815260040160a06040518083038186803b15801561065c57600080fd5b505afa158015610670573d6000803e3d6000fd5b505050506040513d601f19601f820116820180604052508101906106949190610cc1565b505050915050670de0b6b3a7640000816106ae9190610d3c565b92505050919050565b828054828255906000526020600020908101928215610730579160200282015b8281111561072f5782518260006101000a81548173ffffffffffffffffffffffffffffffffffffffff021916908373ffffffffffffffffffffffffffffffffffffffff160217905550916020019190600101906106d7565b5b50905061073d9190610741565b5090565b5b8082111561075a576000816000905550600101610742565b5090565b600080fd5b600073ffffffffffffffffffffffffffffffffffffffff82169050919050565b600061078e82610763565b9050919050565b61079e81610783565b81146107a957600080fd5b50565b6000813590506107bb81610795565b92915050565b6000602082840312156107d7576107d661075e565b5b60006107e5848285016107ac565b91505092915050565b6000819050919050565b610801816107ee565b82525050565b600060208201905061081c60008301846107f8565b92915050565b6000819050919050565b600061084761084261083d84610763565b610822565b610763565b9050919050565b60006108598261082c565b9050919050565b600061086b8261084e565b9050919050565b61087b81610860565b82525050565b60006020820190506108966000830184610872565b92915050565b6108a581610783565b82525050565b60006020820190506108c0600083018461089c565b92915050565b6108cf816107ee565b81146108da57600080fd5b50565b6000813590506108ec816108c6565b92915050565b6000602082840312156109085761090761075e565b5b6000610916848285016108dd565b91505092915050565b600082825260208201905092915050565b7f4e6f7420456e6f75676820457468657265756d00000000000000000000000000600082015250565b600061096660138361091f565b915061097182610930565b602082019050919050565b6000602082019050818103600083015261099581610959565b9050919050565b7f4e487b7100000000000000000000000000000000000000000000000000000000600052601160045260246000fd5b60006109d6826107ee565b91506109e1836107ee565b9250827fffffffffffffffffffffffffffffffffffffffffffffffffffffffffffffffff03821115610a1657610a1561099c565b5b828201905092915050565b7f4e487b7100000000000000000000000000000000000000000000000000000000600052603260045260246000fd5b6000610a5b826107ee565b91507fffffffffffffffffffffffffffffffffffffffffffffffffffffffffffffffff821415610a8e57610a8d61099c565b5b600182019050919050565b7f4e487b7100000000000000000000000000000000000000000000000000000000600052604160045260246000fd5b600081905092915050565b50565b6000610ae3600083610ac8565b9150610aee82610ad3565b600082019050919050565b6000610b0482610ad6565b9150819050919050565b7f5769746864726177206661696c65640000000000000000000000000000000000600082015250565b6000610b44600f8361091f565b9150610b4f82610b0e565b602082019050919050565b60006020820190508181036000830152610b7381610b37565b9050919050565b6000610b85826107ee565b9150610b90836107ee565b9250817fffffffffffffffffffffffffffffffffffffffffffffffffffffffffffffffff0483118215151615610bc957610bc861099c565b5b828202905092915050565b7f4e487b7100000000000000000000000000000000000000000000000000000000600052601260045260246000fd5b6000610c0e826107ee565b9150610c19836107ee565b925082610c2957610c28610bd4565b5b828204905092915050565b600069ffffffffffffffffffff82169050919050565b610c5381610c34565b8114610c5e57600080fd5b50565b600081519050610c7081610c4a565b92915050565b6000819050919050565b610c8981610c76565b8114610c9457600080fd5b50565b600081519050610ca681610c80565b92915050565b600081519050610cbb816108c6565b92915050565b600080600080600060a08688031215610cdd57610cdc61075e565b5b6000610ceb88828901610c61565b9550506020610cfc88828901610c97565b9450506040610d0d88828901610cac565b9350506060610d1e88828901610cac565b9250506080610d2f88828901610c61565b9150509295509295909350565b6000610d4782610c76565b9150610d5283610c76565b9250827f7fffffffffffffffffffffffffffffffffffffffffffffffffffffffffffffff0482116000841360008413161615610d9157610d9061099c565b5b817f80000000000000000000000000000000000000000000000000000000000000000583126000841260008413161615610dce57610dcd61099c565b5b827f80000000000000000000000000000000000000000000000000000000000000000582126000841360008412161615610e0b57610e0a61099c565b5b827f7fffffffffffffffffffffffffffffffffffffffffffffffffffffffffffffff0582126000841260008412161615610e4857610e4761099c565b5b82820290509291505056fea2646970667358221220844f05e6f26d33d538fb6c501af5d79019bb4d6aa79bd9246b8d73444d43f8bd64736f6c63430008080033",
  "devdoc": {
    "kind": "dev",
    "methods": {},
    "version": 1
  },
  "userdoc": {
    "kind": "user",
    "methods": {},
    "version": 1
  },
  "storageLayout": {
    "storage": [
      {
        "astId": 61,
        "contract": "contracts/FundMe.sol:FundMe",
        "label": "funders",
        "offset": 0,
        "slot": "0",
        "type": "t_array(t_address)dyn_storage"
      },
      {
        "astId": 65,
        "contract": "contracts/FundMe.sol:FundMe",
        "label": "addressToAmount",
        "offset": 0,
        "slot": "1",
        "type": "t_mapping(t_address,t_uint256)"
      },
      {
        "astId": 70,
        "contract": "contracts/FundMe.sol:FundMe",
        "label": "priceFeed",
        "offset": 0,
        "slot": "2",
        "type": "t_contract(AggregatorV3Interface)45"
      }
    ],
    "types": {
      "t_address": {
        "encoding": "inplace",
        "label": "address",
        "numberOfBytes": "20"
      },
      "t_array(t_address)dyn_storage": {
        "base": "t_address",
        "encoding": "dynamic_array",
        "label": "address[]",
        "numberOfBytes": "32"
      },
      "t_contract(AggregatorV3Interface)45": {
        "encoding": "inplace",
        "label": "contract AggregatorV3Interface",
        "numberOfBytes": "20"
      },
      "t_mapping(t_address,t_uint256)": {
        "encoding": "mapping",
        "key": "t_address",
        "label": "mapping(address => uint256)",
        "numberOfBytes": "32",
        "value": "t_uint256"
      },
      "t_uint256": {
        "encoding": "inplace",
        "label": "uint256",
        "numberOfBytes": "32"
      }
    }
  }
}