{
	"contracts/FundMe.sol": {
		"FundMe": {
			"abi": [
				{
					"inputs": [],
					"stateMutability": "nonpayable",
					"type": "constructor"
				},
				{
					"inputs": [
						{
							"internalType": "address",
							"name": "",
							"type": "address"
						}
					],
					"name": "addressToAmount",
					"outputs": [
						{
							"internalType": "uint256",
							"name": "",
							"type": "uint256"
						}
					],
					"stateMutability": "view",
					"type": "function"
				},
				{
					"inputs": [],
					"name": "fund",
					"outputs": [],
					"stateMutability": "payable",
					"type": "function"
				},
				{
					"inputs": [
						{
							"internalType": "uint256",
							"name": "",
							"type": "uint256"
						}
					],
					"name": "funders",
					"outputs": [
						{
							"internalType": "address",
							"name": "",
							"type": "address"
						}
					],
					"stateMutability": "view",
					"type": "function"
				},
				{
					"inputs": [],
					"name": "minimumUSD",
					"outputs": [
						{
							"internalType": "uint256",
							"name": "",
							"type": "uint256"
						}
					],
					"stateMutability": "view",
					"type": "function"
				},
				{
					"inputs": [],
					"name": "owner",
					"outputs": [
						{
							"internalType": "address",
							"name": "",
							"type": "address"
						}
					],
					"stateMutability": "view",
					"type": "function"
				},
				{
					"inputs": [],
					"name": "withdraw",
					"outputs": [],
					"stateMutability": "nonpayable",
					"type": "function"
				}
			],
			"devdoc": {
				"kind": "dev",
				"methods": {},
				"version": 1
			},
			"evm": {
				"assembly": "    /* \"contracts/FundMe.sol\":93:1083  contract FundMe{... */\n  mstore(0x40, 0x80)\n    /* \"contracts/FundMe.sol\":328:378  constructor(){... */\n  callvalue\n  dup1\n  iszero\n  tag_1\n  jumpi\n  0x00\n  dup1\n  revert\ntag_1:\n  pop\n    /* \"contracts/FundMe.sol\":360:370  msg.sender */\n  caller\n    /* \"contracts/FundMe.sol\":352:357  owner */\n  0x02\n  0x00\n    /* \"contracts/FundMe.sol\":352:370  owner = msg.sender */\n  0x0100\n  exp\n  dup2\n  sload\n  dup2\n  0xffffffffffffffffffffffffffffffffffffffff\n  mul\n  not\n  and\n  swap1\n  dup4\n  0xffffffffffffffffffffffffffffffffffffffff\n  and\n  mul\n  or\n  swap1\n  sstore\n  pop\n    /* \"contracts/FundMe.sol\":93:1083  contract FundMe{... */\n  dataSize(sub_0)\n  dup1\n  dataOffset(sub_0)\n  0x00\n  codecopy\n  0x00\n  return\nstop\n\nsub_0: assembly {\n        /* \"contracts/FundMe.sol\":93:1083  contract FundMe{... */\n      mstore(0x40, 0x80)\n      jumpi(tag_1, lt(calldatasize, 0x04))\n      shr(0xe0, calldataload(0x00))\n      dup1\n      0x3430a88c\n      eq\n      tag_2\n      jumpi\n      dup1\n      0x3c7e7d28\n      eq\n      tag_3\n      jumpi\n      dup1\n      0x3ccfd60b\n      eq\n      tag_4\n      jumpi\n      dup1\n      0x8da5cb5b\n      eq\n      tag_5\n      jumpi\n      dup1\n      0xb60d4288\n      eq\n      tag_6\n      jumpi\n      dup1\n      0xdc0d3dff\n      eq\n      tag_7\n      jumpi\n    tag_1:\n      0x00\n      dup1\n      revert\n        /* \"contracts/FundMe.sol\":158:204  uint256 constant public minimumUSD = 50 * 1e18 */\n    tag_2:\n      callvalue\n      dup1\n      iszero\n      tag_8\n      jumpi\n      0x00\n      dup1\n      revert\n    tag_8:\n      pop\n      tag_9\n      tag_10\n      jump\t// in\n    tag_9:\n      mload(0x40)\n      tag_11\n      swap2\n      swap1\n      tag_12\n      jump\t// in\n    tag_11:\n      mload(0x40)\n      dup1\n      swap2\n      sub\n      swap1\n      return\n        /* \"contracts/FundMe.sol\":242:292  mapping(address => uint256) public addressToAmount */\n    tag_3:\n      callvalue\n      dup1\n      iszero\n      tag_13\n      jumpi\n      0x00\n      dup1\n      revert\n    tag_13:\n      pop\n      tag_14\n      0x04\n      dup1\n      calldatasize\n      sub\n      dup2\n      add\n      swap1\n      tag_15\n      swap2\n      swap1\n      tag_16\n      jump\t// in\n    tag_15:\n      tag_17\n      jump\t// in\n    tag_14:\n      mload(0x40)\n      tag_18\n      swap2\n      swap1\n      tag_12\n      jump\t// in\n    tag_18:\n      mload(0x40)\n      dup1\n      swap2\n      sub\n      swap1\n      return\n        /* \"contracts/FundMe.sol\":609:970  function withdraw() public onlyOwner {... */\n    tag_4:\n      callvalue\n      dup1\n      iszero\n      tag_19\n      jumpi\n      0x00\n      dup1\n      revert\n    tag_19:\n      pop\n      tag_20\n      tag_21\n      jump\t// in\n    tag_20:\n      stop\n        /* \"contracts/FundMe.sol\":299:319  address public owner */\n    tag_5:\n      callvalue\n      dup1\n      iszero\n      tag_22\n      jumpi\n      0x00\n      dup1\n      revert\n    tag_22:\n      pop\n      tag_23\n      tag_24\n      jump\t// in\n    tag_23:\n      mload(0x40)\n      tag_25\n      swap2\n      swap1\n      tag_26\n      jump\t// in\n    tag_25:\n      mload(0x40)\n      dup1\n      swap2\n      sub\n      swap1\n      return\n        /* \"contracts/FundMe.sol\":386:597  function fund() public payable{... */\n    tag_6:\n      tag_27\n      tag_28\n      jump\t// in\n    tag_27:\n      stop\n        /* \"contracts/FundMe.sol\":211:235  address[] public funders */\n    tag_7:\n      callvalue\n      dup1\n      iszero\n      tag_29\n      jumpi\n      0x00\n      dup1\n      revert\n    tag_29:\n      pop\n      tag_30\n      0x04\n      dup1\n      calldatasize\n      sub\n      dup2\n      add\n      swap1\n      tag_31\n      swap2\n      swap1\n      tag_32\n      jump\t// in\n    tag_31:\n      tag_33\n      jump\t// in\n    tag_30:\n      mload(0x40)\n      tag_34\n      swap2\n      swap1\n      tag_26\n      jump\t// in\n    tag_34:\n      mload(0x40)\n      dup1\n      swap2\n      sub\n      swap1\n      return\n        /* \"contracts/FundMe.sol\":158:204  uint256 constant public minimumUSD = 50 * 1e18 */\n    tag_10:\n        /* \"contracts/FundMe.sol\":195:204  50 * 1e18 */\n      0x02b5e3af16b1880000\n        /* \"contracts/FundMe.sol\":158:204  uint256 constant public minimumUSD = 50 * 1e18 */\n      dup2\n      jump\t// out\n        /* \"contracts/FundMe.sol\":242:292  mapping(address => uint256) public addressToAmount */\n    tag_17:\n      mstore(0x20, 0x01)\n      dup1\n      0x00\n      mstore\n      keccak256(0x00, 0x40)\n      0x00\n      swap2\n      pop\n      swap1\n      pop\n      sload\n      dup2\n      jump\t// out\n        /* \"contracts/FundMe.sol\":609:970  function withdraw() public onlyOwner {... */\n    tag_21:\n        /* \"contracts/FundMe.sol\":1030:1035  owner */\n      0x02\n      0x00\n      swap1\n      sload\n      swap1\n      0x0100\n      exp\n      swap1\n      div\n      0xffffffffffffffffffffffffffffffffffffffff\n      and\n        /* \"contracts/FundMe.sol\":1016:1035  msg.sender == owner */\n      0xffffffffffffffffffffffffffffffffffffffff\n      and\n        /* \"contracts/FundMe.sol\":1016:1026  msg.sender */\n      caller\n        /* \"contracts/FundMe.sol\":1016:1035  msg.sender == owner */\n      0xffffffffffffffffffffffffffffffffffffffff\n      and\n      eq\n        /* \"contracts/FundMe.sol\":1008:1058  require(msg.sender == owner,\"Sender is not Owner\") */\n      tag_36\n      jumpi\n      mload(0x40)\n      0x08c379a000000000000000000000000000000000000000000000000000000000\n      dup2\n      mstore\n      0x04\n      add\n      tag_37\n      swap1\n      tag_38\n      jump\t// in\n    tag_37:\n      mload(0x40)\n      dup1\n      swap2\n      sub\n      swap1\n      revert\n    tag_36:\n        /* \"contracts/FundMe.sol\":661:670  uint256 i */\n      0x00\n        /* \"contracts/FundMe.sol\":657:790  for(uint256 i=0;i<funders.length;i++){... */\n    tag_40:\n        /* \"contracts/FundMe.sol\":675:682  funders */\n      0x00\n        /* \"contracts/FundMe.sol\":675:689  funders.length */\n      dup1\n      sload\n      swap1\n      pop\n        /* \"contracts/FundMe.sol\":673:674  i */\n      dup2\n        /* \"contracts/FundMe.sol\":673:689  i<funders.length */\n      lt\n        /* \"contracts/FundMe.sol\":657:790  for(uint256 i=0;i<funders.length;i++){... */\n      iszero\n      tag_41\n      jumpi\n        /* \"contracts/FundMe.sol\":709:723  address funder */\n      0x00\n        /* \"contracts/FundMe.sol\":726:733  funders */\n      dup1\n        /* \"contracts/FundMe.sol\":734:735  i */\n      dup3\n        /* \"contracts/FundMe.sol\":726:736  funders[i] */\n      dup2\n      sload\n      dup2\n      lt\n      tag_43\n      jumpi\n      tag_44\n      tag_45\n      jump\t// in\n    tag_44:\n    tag_43:\n      swap1\n      0x00\n      mstore\n      keccak256(0x00, 0x20)\n      add\n      0x00\n      swap1\n      sload\n      swap1\n      0x0100\n      exp\n      swap1\n      div\n      0xffffffffffffffffffffffffffffffffffffffff\n      and\n        /* \"contracts/FundMe.sol\":709:736  address funder = funders[i] */\n      swap1\n      pop\n        /* \"contracts/FundMe.sol\":777:778  0 */\n      0x00\n        /* \"contracts/FundMe.sol\":751:766  addressToAmount */\n      0x01\n        /* \"contracts/FundMe.sol\":751:774  addressToAmount[funder] */\n      0x00\n        /* \"contracts/FundMe.sol\":767:773  funder */\n      dup4\n        /* \"contracts/FundMe.sol\":751:774  addressToAmount[funder] */\n      0xffffffffffffffffffffffffffffffffffffffff\n      and\n      0xffffffffffffffffffffffffffffffffffffffff\n      and\n      dup2\n      mstore\n      0x20\n      add\n      swap1\n      dup2\n      mstore\n      0x20\n      add\n      0x00\n      keccak256\n        /* \"contracts/FundMe.sol\":751:778  addressToAmount[funder] = 0 */\n      dup2\n      swap1\n      sstore\n      pop\n        /* \"contracts/FundMe.sol\":694:790  {... */\n      pop\n        /* \"contracts/FundMe.sol\":690:693  i++ */\n      dup1\n      dup1\n      tag_47\n      swap1\n      tag_48\n      jump\t// in\n    tag_47:\n      swap2\n      pop\n      pop\n        /* \"contracts/FundMe.sol\":657:790  for(uint256 i=0;i<funders.length;i++){... */\n      jump(tag_40)\n    tag_41:\n      pop\n        /* \"contracts/FundMe.sol\":826:827  0 */\n      0x00\n        /* \"contracts/FundMe.sol\":812:828  new address[](0) */\n      0xffffffffffffffff\n      dup2\n      gt\n      iszero\n      tag_49\n      jumpi\n      tag_50\n      tag_51\n      jump\t// in\n    tag_50:\n    tag_49:\n      mload(0x40)\n      swap1\n      dup1\n      dup3\n      mstore\n      dup1\n      0x20\n      mul\n      0x20\n      add\n      dup3\n      add\n      0x40\n      mstore\n      dup1\n      iszero\n      tag_52\n      jumpi\n      dup2\n      0x20\n      add\n      0x20\n      dup3\n      mul\n      dup1\n      calldatasize\n      dup4\n      calldatacopy\n      dup1\n      dup3\n      add\n      swap2\n      pop\n      pop\n      swap1\n      pop\n    tag_52:\n      pop\n        /* \"contracts/FundMe.sol\":802:809  funders */\n      0x00\n        /* \"contracts/FundMe.sol\":802:828  funders = new address[](0) */\n      swap1\n      dup1\n      mload\n      swap1\n      0x20\n      add\n      swap1\n      tag_53\n      swap3\n      swap2\n      swap1\n      tag_54\n      jump\t// in\n    tag_53:\n      pop\n        /* \"contracts/FundMe.sol\":842:854  bool success */\n      0x00\n        /* \"contracts/FundMe.sol\":867:877  msg.sender */\n      caller\n        /* \"contracts/FundMe.sol\":859:883  payable(msg.sender).call */\n      0xffffffffffffffffffffffffffffffffffffffff\n      and\n        /* \"contracts/FundMe.sol\":891:912  address(this).balance */\n      selfbalance\n        /* \"contracts/FundMe.sol\":859:917  payable(msg.sender).call{value :address(this).balance}(\"\") */\n      mload(0x40)\n      tag_55\n      swap1\n      tag_56\n      jump\t// in\n    tag_55:\n      0x00\n      mload(0x40)\n      dup1\n      dup4\n      sub\n      dup2\n      dup6\n      dup8\n      gas\n      call\n      swap3\n      pop\n      pop\n      pop\n      returndatasize\n      dup1\n      0x00\n      dup2\n      eq\n      tag_59\n      jumpi\n      mload(0x40)\n      swap2\n      pop\n      and(add(returndatasize, 0x3f), not(0x1f))\n      dup3\n      add\n      0x40\n      mstore\n      returndatasize\n      dup3\n      mstore\n      returndatasize\n      0x00\n      0x20\n      dup5\n      add\n      returndatacopy\n      jump(tag_58)\n    tag_59:\n      0x60\n      swap2\n      pop\n    tag_58:\n      pop\n        /* \"contracts/FundMe.sol\":841:917  (bool success,) = payable(msg.sender).call{value :address(this).balance}(\"\") */\n      pop\n      swap1\n      pop\n        /* \"contracts/FundMe.sol\":936:943  success */\n      dup1\n        /* \"contracts/FundMe.sol\":928:962  require(success,\"Withdraw failed\") */\n      tag_60\n      jumpi\n      mload(0x40)\n      0x08c379a000000000000000000000000000000000000000000000000000000000\n      dup2\n      mstore\n      0x04\n      add\n      tag_61\n      swap1\n      tag_62\n      jump\t// in\n    tag_61:\n      mload(0x40)\n      dup1\n      swap2\n      sub\n      swap1\n      revert\n    tag_60:\n        /* \"contracts/FundMe.sol\":646:970  {... */\n      pop\n        /* \"contracts/FundMe.sol\":609:970  function withdraw() public onlyOwner {... */\n      jump\t// out\n        /* \"contracts/FundMe.sol\":299:319  address public owner */\n    tag_24:\n      0x02\n      0x00\n      swap1\n      sload\n      swap1\n      0x0100\n      exp\n      swap1\n      div\n      0xffffffffffffffffffffffffffffffffffffffff\n      and\n      dup2\n      jump\t// out\n        /* \"contracts/FundMe.sol\":386:597  function fund() public payable{... */\n    tag_28:\n        /* \"contracts/FundMe.sol\":195:204  50 * 1e18 */\n      0x02b5e3af16b1880000\n        /* \"contracts/FundMe.sol\":435:464  msg.value.getConversionRate() */\n      tag_64\n        /* \"contracts/FundMe.sol\":435:444  msg.value */\n      callvalue\n        /* \"contracts/FundMe.sol\":435:462  msg.value.getConversionRate */\n      tag_65\n        /* \"contracts/FundMe.sol\":435:464  msg.value.getConversionRate() */\n      jump\t// in\n    tag_64:\n        /* \"contracts/FundMe.sol\":435:478  msg.value.getConversionRate() >= minimumUSD */\n      lt\n      iszero\n        /* \"contracts/FundMe.sol\":427:503  require(msg.value.getConversionRate() >= minimumUSD , \"Not Enough Ethereum\") */\n      tag_66\n      jumpi\n      mload(0x40)\n      0x08c379a000000000000000000000000000000000000000000000000000000000\n      dup2\n      mstore\n      0x04\n      add\n      tag_67\n      swap1\n      tag_68\n      jump\t// in\n    tag_67:\n      mload(0x40)\n      dup1\n      swap2\n      sub\n      swap1\n      revert\n    tag_66:\n        /* \"contracts/FundMe.sol\":514:521  funders */\n      0x00\n        /* \"contracts/FundMe.sol\":527:537  msg.sender */\n      caller\n        /* \"contracts/FundMe.sol\":514:538  funders.push(msg.sender) */\n      swap1\n      dup1\n      0x01\n      dup2\n      sload\n      add\n      dup1\n      dup3\n      sstore\n      dup1\n      swap2\n      pop\n      pop\n      0x01\n      swap1\n      sub\n      swap1\n      0x00\n      mstore\n      keccak256(0x00, 0x20)\n      add\n      0x00\n      swap1\n      swap2\n      swap1\n      swap2\n      swap1\n      swap2\n      0x0100\n      exp\n      dup2\n      sload\n      dup2\n      0xffffffffffffffffffffffffffffffffffffffff\n      mul\n      not\n      and\n      swap1\n      dup4\n      0xffffffffffffffffffffffffffffffffffffffff\n      and\n      mul\n      or\n      swap1\n      sstore\n      pop\n        /* \"contracts/FundMe.sol\":580:589  msg.value */\n      callvalue\n        /* \"contracts/FundMe.sol\":549:564  addressToAmount */\n      0x01\n        /* \"contracts/FundMe.sol\":549:576  addressToAmount[msg.sender] */\n      0x00\n        /* \"contracts/FundMe.sol\":565:575  msg.sender */\n      caller\n        /* \"contracts/FundMe.sol\":549:576  addressToAmount[msg.sender] */\n      0xffffffffffffffffffffffffffffffffffffffff\n      and\n      0xffffffffffffffffffffffffffffffffffffffff\n      and\n      dup2\n      mstore\n      0x20\n      add\n      swap1\n      dup2\n      mstore\n      0x20\n      add\n      0x00\n      keccak256\n      0x00\n        /* \"contracts/FundMe.sol\":549:589  addressToAmount[msg.sender] += msg.value */\n      dup3\n      dup3\n      sload\n      tag_70\n      swap2\n      swap1\n      tag_71\n      jump\t// in\n    tag_70:\n      swap3\n      pop\n      pop\n      dup2\n      swap1\n      sstore\n      pop\n        /* \"contracts/FundMe.sol\":386:597  function fund() public payable{... */\n      jump\t// out\n        /* \"contracts/FundMe.sol\":211:235  address[] public funders */\n    tag_33:\n      0x00\n      dup2\n      dup2\n      sload\n      dup2\n      lt\n      tag_72\n      jumpi\n      0x00\n      dup1\n      revert\n    tag_72:\n      swap1\n      0x00\n      mstore\n      keccak256(0x00, 0x20)\n      add\n      0x00\n      swap2\n      pop\n      sload\n      swap1\n      0x0100\n      exp\n      swap1\n      div\n      0xffffffffffffffffffffffffffffffffffffffff\n      and\n      dup2\n      jump\t// out\n        /* \"contracts/PriceConvertor.sol\":758:981  function getConversionRate(uint256 ethAmount) internal view returns(uint256){... */\n    tag_65:\n        /* \"contracts/PriceConvertor.sol\":826:833  uint256 */\n      0x00\n        /* \"contracts/PriceConvertor.sol\":845:864  uint256 ethPriceUSD */\n      dup1\n        /* \"contracts/PriceConvertor.sol\":867:877  getPrice() */\n      tag_75\n        /* \"contracts/PriceConvertor.sol\":867:875  getPrice */\n      tag_76\n        /* \"contracts/PriceConvertor.sol\":867:877  getPrice() */\n      jump\t// in\n    tag_75:\n        /* \"contracts/PriceConvertor.sol\":845:877  uint256 ethPriceUSD = getPrice() */\n      swap1\n      pop\n        /* \"contracts/PriceConvertor.sol\":888:908  uint256 ethAmountUSD */\n      0x00\n        /* \"contracts/PriceConvertor.sol\":939:943  1e18 */\n      0x0de0b6b3a7640000\n        /* \"contracts/PriceConvertor.sol\":924:935  ethPriceUSD */\n      dup3\n        /* \"contracts/PriceConvertor.sol\":912:921  ethAmount */\n      dup6\n        /* \"contracts/PriceConvertor.sol\":912:935  ethAmount * ethPriceUSD */\n      tag_77\n      swap2\n      swap1\n      tag_78\n      jump\t// in\n    tag_77:\n        /* \"contracts/PriceConvertor.sol\":911:943  (ethAmount * ethPriceUSD) / 1e18 */\n      tag_79\n      swap2\n      swap1\n      tag_80\n      jump\t// in\n    tag_79:\n        /* \"contracts/PriceConvertor.sol\":888:943  uint256 ethAmountUSD = (ethAmount * ethPriceUSD) / 1e18 */\n      swap1\n      pop\n        /* \"contracts/PriceConvertor.sol\":961:973  ethAmountUSD */\n      dup1\n        /* \"contracts/PriceConvertor.sol\":954:973  return ethAmountUSD */\n      swap3\n      pop\n      pop\n      pop\n        /* \"contracts/PriceConvertor.sol\":758:981  function getConversionRate(uint256 ethAmount) internal view returns(uint256){... */\n      swap2\n      swap1\n      pop\n      jump\t// out\n        /* \"contracts/PriceConvertor.sol\":207:530  function getPrice() internal view returns(uint256){... */\n    tag_76:\n        /* \"contracts/PriceConvertor.sol\":249:256  uint256 */\n      0x00\n        /* \"contracts/PriceConvertor.sol\":330:361  AggregatorV3Interface priceFeed */\n      dup1\n        /* \"contracts/PriceConvertor.sol\":386:428  0x694AA1769357215DE4FAC081bf1f309aDC325306 */\n      0x694aa1769357215de4fac081bf1f309adc325306\n        /* \"contracts/PriceConvertor.sol\":330:429  AggregatorV3Interface priceFeed = AggregatorV3Interface(0x694AA1769357215DE4FAC081bf1f309aDC325306) */\n      swap1\n      pop\n        /* \"contracts/PriceConvertor.sol\":442:451  int price */\n      0x00\n        /* \"contracts/PriceConvertor.sol\":458:467  priceFeed */\n      dup2\n        /* \"contracts/PriceConvertor.sol\":458:483  priceFeed.latestRoundData */\n      0xffffffffffffffffffffffffffffffffffffffff\n      and\n      0xfeaf968c\n        /* \"contracts/PriceConvertor.sol\":458:485  priceFeed.latestRoundData() */\n      mload(0x40)\n      dup2\n      0xffffffff\n      and\n      0xe0\n      shl\n      dup2\n      mstore\n      0x04\n      add\n      0xa0\n      mload(0x40)\n      dup1\n      dup4\n      sub\n      dup2\n      dup7\n      dup1\n      extcodesize\n      iszero\n      dup1\n      iszero\n      tag_82\n      jumpi\n      0x00\n      dup1\n      revert\n    tag_82:\n      pop\n      gas\n      staticcall\n      iszero\n      dup1\n      iszero\n      tag_84\n      jumpi\n      returndatasize\n      0x00\n      dup1\n      returndatacopy\n      revert(0x00, returndatasize)\n    tag_84:\n      pop\n      pop\n      pop\n      pop\n      mload(0x40)\n      returndatasize\n      not(0x1f)\n      0x1f\n      dup3\n      add\n      and\n      dup3\n      add\n      dup1\n      0x40\n      mstore\n      pop\n      dup2\n      add\n      swap1\n      tag_85\n      swap2\n      swap1\n      tag_86\n      jump\t// in\n    tag_85:\n        /* \"contracts/PriceConvertor.sol\":440:485  (,int price,,,) = priceFeed.latestRoundData() */\n      pop\n      pop\n      pop\n      swap2\n      pop\n      pop\n        /* \"contracts/PriceConvertor.sol\":517:521  1e18 */\n      0x0de0b6b3a7640000\n        /* \"contracts/PriceConvertor.sol\":511:516  price */\n      dup2\n        /* \"contracts/PriceConvertor.sol\":511:521  price*1e18 */\n      tag_87\n      swap2\n      swap1\n      tag_88\n      jump\t// in\n    tag_87:\n        /* \"contracts/PriceConvertor.sol\":496:522  return uint256(price*1e18) */\n      swap3\n      pop\n      pop\n      pop\n        /* \"contracts/PriceConvertor.sol\":207:530  function getPrice() internal view returns(uint256){... */\n      swap1\n      jump\t// out\n    tag_54:\n      dup3\n      dup1\n      sload\n      dup3\n      dup3\n      sstore\n      swap1\n      0x00\n      mstore\n      keccak256(0x00, 0x20)\n      swap1\n      dup2\n      add\n      swap3\n      dup3\n      iszero\n      tag_89\n      jumpi\n      swap2\n      0x20\n      mul\n      dup3\n      add\n    tag_90:\n      dup3\n      dup2\n      gt\n      iszero\n      tag_91\n      jumpi\n      dup3\n      mload\n      dup3\n      exp(0x0100, 0x00)\n      dup2\n      sload\n      dup2\n      0xffffffffffffffffffffffffffffffffffffffff\n      mul\n      not\n      and\n      swap1\n      dup4\n      0xffffffffffffffffffffffffffffffffffffffff\n      and\n      mul\n      or\n      swap1\n      sstore\n      pop\n      swap2\n      0x20\n      add\n      swap2\n      swap1\n      0x01\n      add\n      swap1\n      jump(tag_90)\n    tag_91:\n    tag_89:\n      pop\n      swap1\n      pop\n      tag_92\n      swap2\n      swap1\n      tag_93\n      jump\t// in\n    tag_92:\n      pop\n      swap1\n      jump\t// out\n    tag_93:\n    tag_94:\n      dup1\n      dup3\n      gt\n      iszero\n      tag_95\n      jumpi\n      0x00\n      dup2\n      0x00\n      swap1\n      sstore\n      pop\n      0x01\n      add\n      jump(tag_94)\n    tag_95:\n      pop\n      swap1\n      jump\t// out\n        /* \"#utility.yul\":7:84   */\n    tag_96:\n        /* \"#utility.yul\":44:51   */\n      0x00\n        /* \"#utility.yul\":73:78   */\n      dup2\n        /* \"#utility.yul\":62:78   */\n      swap1\n      pop\n        /* \"#utility.yul\":7:84   */\n      swap2\n      swap1\n      pop\n      jump\t// out\n        /* \"#utility.yul\":90:208   */\n    tag_97:\n        /* \"#utility.yul\":177:201   */\n      tag_130\n        /* \"#utility.yul\":195:200   */\n      dup2\n        /* \"#utility.yul\":177:201   */\n      tag_96\n      jump\t// in\n    tag_130:\n        /* \"#utility.yul\":172:175   */\n      dup3\n        /* \"#utility.yul\":165:202   */\n      mstore\n        /* \"#utility.yul\":90:208   */\n      pop\n      pop\n      jump\t// out\n        /* \"#utility.yul\":214:436   */\n    tag_12:\n        /* \"#utility.yul\":307:311   */\n      0x00\n        /* \"#utility.yul\":345:347   */\n      0x20\n        /* \"#utility.yul\":334:343   */\n      dup3\n        /* \"#utility.yul\":330:348   */\n      add\n        /* \"#utility.yul\":322:348   */\n      swap1\n      pop\n        /* \"#utility.yul\":358:429   */\n      tag_132\n        /* \"#utility.yul\":426:427   */\n      0x00\n        /* \"#utility.yul\":415:424   */\n      dup4\n        /* \"#utility.yul\":411:428   */\n      add\n        /* \"#utility.yul\":402:408   */\n      dup5\n        /* \"#utility.yul\":358:429   */\n      tag_97\n      jump\t// in\n    tag_132:\n        /* \"#utility.yul\":214:436   */\n      swap3\n      swap2\n      pop\n      pop\n      jump\t// out\n        /* \"#utility.yul\":523:640   */\n    tag_99:\n        /* \"#utility.yul\":632:633   */\n      0x00\n        /* \"#utility.yul\":629:630   */\n      dup1\n        /* \"#utility.yul\":622:634   */\n      revert\n        /* \"#utility.yul\":769:895   */\n    tag_101:\n        /* \"#utility.yul\":806:813   */\n      0x00\n        /* \"#utility.yul\":846:888   */\n      0xffffffffffffffffffffffffffffffffffffffff\n        /* \"#utility.yul\":839:844   */\n      dup3\n        /* \"#utility.yul\":835:889   */\n      and\n        /* \"#utility.yul\":824:889   */\n      swap1\n      pop\n        /* \"#utility.yul\":769:895   */\n      swap2\n      swap1\n      pop\n      jump\t// out\n        /* \"#utility.yul\":901:997   */\n    tag_102:\n        /* \"#utility.yul\":938:945   */\n      0x00\n        /* \"#utility.yul\":967:991   */\n      tag_138\n        /* \"#utility.yul\":985:990   */\n      dup3\n        /* \"#utility.yul\":967:991   */\n      tag_101\n      jump\t// in\n    tag_138:\n        /* \"#utility.yul\":956:991   */\n      swap1\n      pop\n        /* \"#utility.yul\":901:997   */\n      swap2\n      swap1\n      pop\n      jump\t// out\n        /* \"#utility.yul\":1003:1125   */\n    tag_103:\n        /* \"#utility.yul\":1076:1100   */\n      tag_140\n        /* \"#utility.yul\":1094:1099   */\n      dup2\n        /* \"#utility.yul\":1076:1100   */\n      tag_102\n      jump\t// in\n    tag_140:\n        /* \"#utility.yul\":1069:1074   */\n      dup2\n        /* \"#utility.yul\":1066:1101   */\n      eq\n        /* \"#utility.yul\":1056:1119   */\n      tag_141\n      jumpi\n        /* \"#utility.yul\":1115:1116   */\n      0x00\n        /* \"#utility.yul\":1112:1113   */\n      dup1\n        /* \"#utility.yul\":1105:1117   */\n      revert\n        /* \"#utility.yul\":1056:1119   */\n    tag_141:\n        /* \"#utility.yul\":1003:1125   */\n      pop\n      jump\t// out\n        /* \"#utility.yul\":1131:1270   */\n    tag_104:\n        /* \"#utility.yul\":1177:1182   */\n      0x00\n        /* \"#utility.yul\":1215:1221   */\n      dup2\n        /* \"#utility.yul\":1202:1222   */\n      calldataload\n        /* \"#utility.yul\":1193:1222   */\n      swap1\n      pop\n        /* \"#utility.yul\":1231:1264   */\n      tag_143\n        /* \"#utility.yul\":1258:1263   */\n      dup2\n        /* \"#utility.yul\":1231:1264   */\n      tag_103\n      jump\t// in\n    tag_143:\n        /* \"#utility.yul\":1131:1270   */\n      swap3\n      swap2\n      pop\n      pop\n      jump\t// out\n        /* \"#utility.yul\":1276:1605   */\n    tag_16:\n        /* \"#utility.yul\":1335:1341   */\n      0x00\n        /* \"#utility.yul\":1384:1386   */\n      0x20\n        /* \"#utility.yul\":1372:1381   */\n      dup3\n        /* \"#utility.yul\":1363:1370   */\n      dup5\n        /* \"#utility.yul\":1359:1382   */\n      sub\n        /* \"#utility.yul\":1355:1387   */\n      slt\n        /* \"#utility.yul\":1352:1471   */\n      iszero\n      tag_145\n      jumpi\n        /* \"#utility.yul\":1390:1469   */\n      tag_146\n      tag_99\n      jump\t// in\n    tag_146:\n        /* \"#utility.yul\":1352:1471   */\n    tag_145:\n        /* \"#utility.yul\":1510:1511   */\n      0x00\n        /* \"#utility.yul\":1535:1588   */\n      tag_147\n        /* \"#utility.yul\":1580:1587   */\n      dup5\n        /* \"#utility.yul\":1571:1577   */\n      dup3\n        /* \"#utility.yul\":1560:1569   */\n      dup6\n        /* \"#utility.yul\":1556:1578   */\n      add\n        /* \"#utility.yul\":1535:1588   */\n      tag_104\n      jump\t// in\n    tag_147:\n        /* \"#utility.yul\":1525:1588   */\n      swap2\n      pop\n        /* \"#utility.yul\":1481:1598   */\n      pop\n        /* \"#utility.yul\":1276:1605   */\n      swap3\n      swap2\n      pop\n      pop\n      jump\t// out\n        /* \"#utility.yul\":1611:1729   */\n    tag_105:\n        /* \"#utility.yul\":1698:1722   */\n      tag_149\n        /* \"#utility.yul\":1716:1721   */\n      dup2\n        /* \"#utility.yul\":1698:1722   */\n      tag_102\n      jump\t// in\n    tag_149:\n        /* \"#utility.yul\":1693:1696   */\n      dup3\n        /* \"#utility.yul\":1686:1723   */\n      mstore\n        /* \"#utility.yul\":1611:1729   */\n      pop\n      pop\n      jump\t// out\n        /* \"#utility.yul\":1735:1957   */\n    tag_26:\n        /* \"#utility.yul\":1828:1832   */\n      0x00\n        /* \"#utility.yul\":1866:1868   */\n      0x20\n        /* \"#utility.yul\":1855:1864   */\n      dup3\n        /* \"#utility.yul\":1851:1869   */\n      add\n        /* \"#utility.yul\":1843:1869   */\n      swap1\n      pop\n        /* \"#utility.yul\":1879:1950   */\n      tag_151\n        /* \"#utility.yul\":1947:1948   */\n      0x00\n        /* \"#utility.yul\":1936:1945   */\n      dup4\n        /* \"#utility.yul\":1932:1949   */\n      add\n        /* \"#utility.yul\":1923:1929   */\n      dup5\n        /* \"#utility.yul\":1879:1950   */\n      tag_105\n      jump\t// in\n    tag_151:\n        /* \"#utility.yul\":1735:1957   */\n      swap3\n      swap2\n      pop\n      pop\n      jump\t// out\n        /* \"#utility.yul\":1963:2085   */\n    tag_106:\n        /* \"#utility.yul\":2036:2060   */\n      tag_153\n        /* \"#utility.yul\":2054:2059   */\n      dup2\n        /* \"#utility.yul\":2036:2060   */\n      tag_96\n      jump\t// in\n    tag_153:\n        /* \"#utility.yul\":2029:2034   */\n      dup2\n        /* \"#utility.yul\":2026:2061   */\n      eq\n        /* \"#utility.yul\":2016:2079   */\n      tag_154\n      jumpi\n        /* \"#utility.yul\":2075:2076   */\n      0x00\n        /* \"#utility.yul\":2072:2073   */\n      dup1\n        /* \"#utility.yul\":2065:2077   */\n      revert\n        /* \"#utility.yul\":2016:2079   */\n    tag_154:\n        /* \"#utility.yul\":1963:2085   */\n      pop\n      jump\t// out\n        /* \"#utility.yul\":2091:2230   */\n    tag_107:\n        /* \"#utility.yul\":2137:2142   */\n      0x00\n        /* \"#utility.yul\":2175:2181   */\n      dup2\n        /* \"#utility.yul\":2162:2182   */\n      calldataload\n        /* \"#utility.yul\":2153:2182   */\n      swap1\n      pop\n        /* \"#utility.yul\":2191:2224   */\n      tag_156\n        /* \"#utility.yul\":2218:2223   */\n      dup2\n        /* \"#utility.yul\":2191:2224   */\n      tag_106\n      jump\t// in\n    tag_156:\n        /* \"#utility.yul\":2091:2230   */\n      swap3\n      swap2\n      pop\n      pop\n      jump\t// out\n        /* \"#utility.yul\":2236:2565   */\n    tag_32:\n        /* \"#utility.yul\":2295:2301   */\n      0x00\n        /* \"#utility.yul\":2344:2346   */\n      0x20\n        /* \"#utility.yul\":2332:2341   */\n      dup3\n        /* \"#utility.yul\":2323:2330   */\n      dup5\n        /* \"#utility.yul\":2319:2342   */\n      sub\n        /* \"#utility.yul\":2315:2347   */\n      slt\n        /* \"#utility.yul\":2312:2431   */\n      iszero\n      tag_158\n      jumpi\n        /* \"#utility.yul\":2350:2429   */\n      tag_159\n      tag_99\n      jump\t// in\n    tag_159:\n        /* \"#utility.yul\":2312:2431   */\n    tag_158:\n        /* \"#utility.yul\":2470:2471   */\n      0x00\n        /* \"#utility.yul\":2495:2548   */\n      tag_160\n        /* \"#utility.yul\":2540:2547   */\n      dup5\n        /* \"#utility.yul\":2531:2537   */\n      dup3\n        /* \"#utility.yul\":2520:2529   */\n      dup6\n        /* \"#utility.yul\":2516:2538   */\n      add\n        /* \"#utility.yul\":2495:2548   */\n      tag_107\n      jump\t// in\n    tag_160:\n        /* \"#utility.yul\":2485:2548   */\n      swap2\n      pop\n        /* \"#utility.yul\":2441:2558   */\n      pop\n        /* \"#utility.yul\":2236:2565   */\n      swap3\n      swap2\n      pop\n      pop\n      jump\t// out\n        /* \"#utility.yul\":2571:2740   */\n    tag_108:\n        /* \"#utility.yul\":2655:2666   */\n      0x00\n        /* \"#utility.yul\":2689:2695   */\n      dup3\n        /* \"#utility.yul\":2684:2687   */\n      dup3\n        /* \"#utility.yul\":2677:2696   */\n      mstore\n        /* \"#utility.yul\":2729:2733   */\n      0x20\n        /* \"#utility.yul\":2724:2727   */\n      dup3\n        /* \"#utility.yul\":2720:2734   */\n      add\n        /* \"#utility.yul\":2705:2734   */\n      swap1\n      pop\n        /* \"#utility.yul\":2571:2740   */\n      swap3\n      swap2\n      pop\n      pop\n      jump\t// out\n        /* \"#utility.yul\":2746:2915   */\n    tag_109:\n        /* \"#utility.yul\":2886:2907   */\n      0x53656e646572206973206e6f74204f776e657200000000000000000000000000\n        /* \"#utility.yul\":2882:2883   */\n      0x00\n        /* \"#utility.yul\":2874:2880   */\n      dup3\n        /* \"#utility.yul\":2870:2884   */\n      add\n        /* \"#utility.yul\":2863:2908   */\n      mstore\n        /* \"#utility.yul\":2746:2915   */\n      pop\n      jump\t// out\n        /* \"#utility.yul\":2921:3287   */\n    tag_110:\n        /* \"#utility.yul\":3063:3066   */\n      0x00\n        /* \"#utility.yul\":3084:3151   */\n      tag_164\n        /* \"#utility.yul\":3148:3150   */\n      0x13\n        /* \"#utility.yul\":3143:3146   */\n      dup4\n        /* \"#utility.yul\":3084:3151   */\n      tag_108\n      jump\t// in\n    tag_164:\n        /* \"#utility.yul\":3077:3151   */\n      swap2\n      pop\n        /* \"#utility.yul\":3160:3253   */\n      tag_165\n        /* \"#utility.yul\":3249:3252   */\n      dup3\n        /* \"#utility.yul\":3160:3253   */\n      tag_109\n      jump\t// in\n    tag_165:\n        /* \"#utility.yul\":3278:3280   */\n      0x20\n        /* \"#utility.yul\":3273:3276   */\n      dup3\n        /* \"#utility.yul\":3269:3281   */\n      add\n        /* \"#utility.yul\":3262:3281   */\n      swap1\n      pop\n        /* \"#utility.yul\":2921:3287   */\n      swap2\n      swap1\n      pop\n      jump\t// out\n        /* \"#utility.yul\":3293:3712   */\n    tag_38:\n        /* \"#utility.yul\":3459:3463   */\n      0x00\n        /* \"#utility.yul\":3497:3499   */\n      0x20\n        /* \"#utility.yul\":3486:3495   */\n      dup3\n        /* \"#utility.yul\":3482:3500   */\n      add\n        /* \"#utility.yul\":3474:3500   */\n      swap1\n      pop\n        /* \"#utility.yul\":3546:3555   */\n      dup2\n        /* \"#utility.yul\":3540:3544   */\n      dup2\n        /* \"#utility.yul\":3536:3556   */\n      sub\n        /* \"#utility.yul\":3532:3533   */\n      0x00\n        /* \"#utility.yul\":3521:3530   */\n      dup4\n        /* \"#utility.yul\":3517:3534   */\n      add\n        /* \"#utility.yul\":3510:3557   */\n      mstore\n        /* \"#utility.yul\":3574:3705   */\n      tag_167\n        /* \"#utility.yul\":3700:3704   */\n      dup2\n        /* \"#utility.yul\":3574:3705   */\n      tag_110\n      jump\t// in\n    tag_167:\n        /* \"#utility.yul\":3566:3705   */\n      swap1\n      pop\n        /* \"#utility.yul\":3293:3712   */\n      swap2\n      swap1\n      pop\n      jump\t// out\n        /* \"#utility.yul\":3718:3898   */\n    tag_45:\n        /* \"#utility.yul\":3766:3843   */\n      0x4e487b7100000000000000000000000000000000000000000000000000000000\n        /* \"#utility.yul\":3763:3764   */\n      0x00\n        /* \"#utility.yul\":3756:3844   */\n      mstore\n        /* \"#utility.yul\":3863:3867   */\n      0x32\n        /* \"#utility.yul\":3860:3861   */\n      0x04\n        /* \"#utility.yul\":3853:3868   */\n      mstore\n        /* \"#utility.yul\":3887:3891   */\n      0x24\n        /* \"#utility.yul\":3884:3885   */\n      0x00\n        /* \"#utility.yul\":3877:3892   */\n      revert\n        /* \"#utility.yul\":3904:4084   */\n    tag_111:\n        /* \"#utility.yul\":3952:4029   */\n      0x4e487b7100000000000000000000000000000000000000000000000000000000\n        /* \"#utility.yul\":3949:3950   */\n      0x00\n        /* \"#utility.yul\":3942:4030   */\n      mstore\n        /* \"#utility.yul\":4049:4053   */\n      0x11\n        /* \"#utility.yul\":4046:4047   */\n      0x04\n        /* \"#utility.yul\":4039:4054   */\n      mstore\n        /* \"#utility.yul\":4073:4077   */\n      0x24\n        /* \"#utility.yul\":4070:4071   */\n      0x00\n        /* \"#utility.yul\":4063:4078   */\n      revert\n        /* \"#utility.yul\":4090:4323   */\n    tag_48:\n        /* \"#utility.yul\":4129:4132   */\n      0x00\n        /* \"#utility.yul\":4152:4176   */\n      tag_171\n        /* \"#utility.yul\":4170:4175   */\n      dup3\n        /* \"#utility.yul\":4152:4176   */\n      tag_96\n      jump\t// in\n    tag_171:\n        /* \"#utility.yul\":4143:4176   */\n      swap2\n      pop\n        /* \"#utility.yul\":4198:4264   */\n      0xffffffffffffffffffffffffffffffffffffffffffffffffffffffffffffffff\n        /* \"#utility.yul\":4191:4196   */\n      dup3\n        /* \"#utility.yul\":4188:4265   */\n      eq\n        /* \"#utility.yul\":4185:4288   */\n      iszero\n      tag_172\n      jumpi\n        /* \"#utility.yul\":4268:4286   */\n      tag_173\n      tag_111\n      jump\t// in\n    tag_173:\n        /* \"#utility.yul\":4185:4288   */\n    tag_172:\n        /* \"#utility.yul\":4315:4316   */\n      0x01\n        /* \"#utility.yul\":4308:4313   */\n      dup3\n        /* \"#utility.yul\":4304:4317   */\n      add\n        /* \"#utility.yul\":4297:4317   */\n      swap1\n      pop\n        /* \"#utility.yul\":4090:4323   */\n      swap2\n      swap1\n      pop\n      jump\t// out\n        /* \"#utility.yul\":4329:4509   */\n    tag_51:\n        /* \"#utility.yul\":4377:4454   */\n      0x4e487b7100000000000000000000000000000000000000000000000000000000\n        /* \"#utility.yul\":4374:4375   */\n      0x00\n        /* \"#utility.yul\":4367:4455   */\n      mstore\n        /* \"#utility.yul\":4474:4478   */\n      0x41\n        /* \"#utility.yul\":4471:4472   */\n      0x04\n        /* \"#utility.yul\":4464:4479   */\n      mstore\n        /* \"#utility.yul\":4498:4502   */\n      0x24\n        /* \"#utility.yul\":4495:4496   */\n      0x00\n        /* \"#utility.yul\":4488:4503   */\n      revert\n        /* \"#utility.yul\":4515:4662   */\n    tag_112:\n        /* \"#utility.yul\":4616:4627   */\n      0x00\n        /* \"#utility.yul\":4653:4656   */\n      dup2\n        /* \"#utility.yul\":4638:4656   */\n      swap1\n      pop\n        /* \"#utility.yul\":4515:4662   */\n      swap3\n      swap2\n      pop\n      pop\n      jump\t// out\n        /* \"#utility.yul\":4668:4782   */\n    tag_113:\n      pop\n      jump\t// out\n        /* \"#utility.yul\":4788:5186   */\n    tag_114:\n        /* \"#utility.yul\":4947:4950   */\n      0x00\n        /* \"#utility.yul\":4968:5051   */\n      tag_178\n        /* \"#utility.yul\":5049:5050   */\n      0x00\n        /* \"#utility.yul\":5044:5047   */\n      dup4\n        /* \"#utility.yul\":4968:5051   */\n      tag_112\n      jump\t// in\n    tag_178:\n        /* \"#utility.yul\":4961:5051   */\n      swap2\n      pop\n        /* \"#utility.yul\":5060:5153   */\n      tag_179\n        /* \"#utility.yul\":5149:5152   */\n      dup3\n        /* \"#utility.yul\":5060:5153   */\n      tag_113\n      jump\t// in\n    tag_179:\n        /* \"#utility.yul\":5178:5179   */\n      0x00\n        /* \"#utility.yul\":5173:5176   */\n      dup3\n        /* \"#utility.yul\":5169:5180   */\n      add\n        /* \"#utility.yul\":5162:5180   */\n      swap1\n      pop\n        /* \"#utility.yul\":4788:5186   */\n      swap2\n      swap1\n      pop\n      jump\t// out\n        /* \"#utility.yul\":5192:5571   */\n    tag_56:\n        /* \"#utility.yul\":5376:5379   */\n      0x00\n        /* \"#utility.yul\":5398:5545   */\n      tag_181\n        /* \"#utility.yul\":5541:5544   */\n      dup3\n        /* \"#utility.yul\":5398:5545   */\n      tag_114\n      jump\t// in\n    tag_181:\n        /* \"#utility.yul\":5391:5545   */\n      swap2\n      pop\n        /* \"#utility.yul\":5562:5565   */\n      dup2\n        /* \"#utility.yul\":5555:5565   */\n      swap1\n      pop\n        /* \"#utility.yul\":5192:5571   */\n      swap2\n      swap1\n      pop\n      jump\t// out\n        /* \"#utility.yul\":5577:5742   */\n    tag_115:\n        /* \"#utility.yul\":5717:5734   */\n      0x5769746864726177206661696c65640000000000000000000000000000000000\n        /* \"#utility.yul\":5713:5714   */\n      0x00\n        /* \"#utility.yul\":5705:5711   */\n      dup3\n        /* \"#utility.yul\":5701:5715   */\n      add\n        /* \"#utility.yul\":5694:5735   */\n      mstore\n        /* \"#utility.yul\":5577:5742   */\n      pop\n      jump\t// out\n        /* \"#utility.yul\":5748:6114   */\n    tag_116:\n        /* \"#utility.yul\":5890:5893   */\n      0x00\n        /* \"#utility.yul\":5911:5978   */\n      tag_184\n        /* \"#utility.yul\":5975:5977   */\n      0x0f\n        /* \"#utility.yul\":5970:5973   */\n      dup4\n        /* \"#utility.yul\":5911:5978   */\n      tag_108\n      jump\t// in\n    tag_184:\n        /* \"#utility.yul\":5904:5978   */\n      swap2\n      pop\n        /* \"#utility.yul\":5987:6080   */\n      tag_185\n        /* \"#utility.yul\":6076:6079   */\n      dup3\n        /* \"#utility.yul\":5987:6080   */\n      tag_115\n      jump\t// in\n    tag_185:\n        /* \"#utility.yul\":6105:6107   */\n      0x20\n        /* \"#utility.yul\":6100:6103   */\n      dup3\n        /* \"#utility.yul\":6096:6108   */\n      add\n        /* \"#utility.yul\":6089:6108   */\n      swap1\n      pop\n        /* \"#utility.yul\":5748:6114   */\n      swap2\n      swap1\n      pop\n      jump\t// out\n        /* \"#utility.yul\":6120:6539   */\n    tag_62:\n        /* \"#utility.yul\":6286:6290   */\n      0x00\n        /* \"#utility.yul\":6324:6326   */\n      0x20\n        /* \"#utility.yul\":6313:6322   */\n      dup3\n        /* \"#utility.yul\":6309:6327   */\n      add\n        /* \"#utility.yul\":6301:6327   */\n      swap1\n      pop\n        /* \"#utility.yul\":6373:6382   */\n      dup2\n        /* \"#utility.yul\":6367:6371   */\n      dup2\n        /* \"#utility.yul\":6363:6383   */\n      sub\n        /* \"#utility.yul\":6359:6360   */\n      0x00\n        /* \"#utility.yul\":6348:6357   */\n      dup4\n        /* \"#utility.yul\":6344:6361   */\n      add\n        /* \"#utility.yul\":6337:6384   */\n      mstore\n        /* \"#utility.yul\":6401:6532   */\n      tag_187\n        /* \"#utility.yul\":6527:6531   */\n      dup2\n        /* \"#utility.yul\":6401:6532   */\n      tag_116\n      jump\t// in\n    tag_187:\n        /* \"#utility.yul\":6393:6532   */\n      swap1\n      pop\n        /* \"#utility.yul\":6120:6539   */\n      swap2\n      swap1\n      pop\n      jump\t// out\n        /* \"#utility.yul\":6545:6714   */\n    tag_117:\n        /* \"#utility.yul\":6685:6706   */\n      0x4e6f7420456e6f75676820457468657265756d00000000000000000000000000\n        /* \"#utility.yul\":6681:6682   */\n      0x00\n        /* \"#utility.yul\":6673:6679   */\n      dup3\n        /* \"#utility.yul\":6669:6683   */\n      add\n        /* \"#utility.yul\":6662:6707   */\n      mstore\n        /* \"#utility.yul\":6545:6714   */\n      pop\n      jump\t// out\n        /* \"#utility.yul\":6720:7086   */\n    tag_118:\n        /* \"#utility.yul\":6862:6865   */\n      0x00\n        /* \"#utility.yul\":6883:6950   */\n      tag_190\n        /* \"#utility.yul\":6947:6949   */\n      0x13\n        /* \"#utility.yul\":6942:6945   */\n      dup4\n        /* \"#utility.yul\":6883:6950   */\n      tag_108\n      jump\t// in\n    tag_190:\n        /* \"#utility.yul\":6876:6950   */\n      swap2\n      pop\n        /* \"#utility.yul\":6959:7052   */\n      tag_191\n        /* \"#utility.yul\":7048:7051   */\n      dup3\n        /* \"#utility.yul\":6959:7052   */\n      tag_117\n      jump\t// in\n    tag_191:\n        /* \"#utility.yul\":7077:7079   */\n      0x20\n        /* \"#utility.yul\":7072:7075   */\n      dup3\n        /* \"#utility.yul\":7068:7080   */\n      add\n        /* \"#utility.yul\":7061:7080   */\n      swap1\n      pop\n        /* \"#utility.yul\":6720:7086   */\n      swap2\n      swap1\n      pop\n      jump\t// out\n        /* \"#utility.yul\":7092:7511   */\n    tag_68:\n        /* \"#utility.yul\":7258:7262   */\n      0x00\n        /* \"#utility.yul\":7296:7298   */\n      0x20\n        /* \"#utility.yul\":7285:7294   */\n      dup3\n        /* \"#utility.yul\":7281:7299   */\n      add\n        /* \"#utility.yul\":7273:7299   */\n      swap1\n      pop\n        /* \"#utility.yul\":7345:7354   */\n      dup2\n        /* \"#utility.yul\":7339:7343   */\n      dup2\n        /* \"#utility.yul\":7335:7355   */\n      sub\n        /* \"#utility.yul\":7331:7332   */\n      0x00\n        /* \"#utility.yul\":7320:7329   */\n      dup4\n        /* \"#utility.yul\":7316:7333   */\n      add\n        /* \"#utility.yul\":7309:7356   */\n      mstore\n        /* \"#utility.yul\":7373:7504   */\n      tag_193\n        /* \"#utility.yul\":7499:7503   */\n      dup2\n        /* \"#utility.yul\":7373:7504   */\n      tag_118\n      jump\t// in\n    tag_193:\n        /* \"#utility.yul\":7365:7504   */\n      swap1\n      pop\n        /* \"#utility.yul\":7092:7511   */\n      swap2\n      swap1\n      pop\n      jump\t// out\n        /* \"#utility.yul\":7517:7822   */\n    tag_71:\n        /* \"#utility.yul\":7557:7560   */\n      0x00\n        /* \"#utility.yul\":7576:7596   */\n      tag_195\n        /* \"#utility.yul\":7594:7595   */\n      dup3\n        /* \"#utility.yul\":7576:7596   */\n      tag_96\n      jump\t// in\n    tag_195:\n        /* \"#utility.yul\":7571:7596   */\n      swap2\n      pop\n        /* \"#utility.yul\":7610:7630   */\n      tag_196\n        /* \"#utility.yul\":7628:7629   */\n      dup4\n        /* \"#utility.yul\":7610:7630   */\n      tag_96\n      jump\t// in\n    tag_196:\n        /* \"#utility.yul\":7605:7630   */\n      swap3\n      pop\n        /* \"#utility.yul\":7764:7765   */\n      dup3\n        /* \"#utility.yul\":7696:7762   */\n      0xffffffffffffffffffffffffffffffffffffffffffffffffffffffffffffffff\n        /* \"#utility.yul\":7692:7766   */\n      sub\n        /* \"#utility.yul\":7689:7690   */\n      dup3\n        /* \"#utility.yul\":7686:7767   */\n      gt\n        /* \"#utility.yul\":7683:7790   */\n      iszero\n      tag_197\n      jumpi\n        /* \"#utility.yul\":7770:7788   */\n      tag_198\n      tag_111\n      jump\t// in\n    tag_198:\n        /* \"#utility.yul\":7683:7790   */\n    tag_197:\n        /* \"#utility.yul\":7814:7815   */\n      dup3\n        /* \"#utility.yul\":7811:7812   */\n      dup3\n        /* \"#utility.yul\":7807:7816   */\n      add\n        /* \"#utility.yul\":7800:7816   */\n      swap1\n      pop\n        /* \"#utility.yul\":7517:7822   */\n      swap3\n      swap2\n      pop\n      pop\n      jump\t// out\n        /* \"#utility.yul\":7828:8176   */\n    tag_78:\n        /* \"#utility.yul\":7868:7875   */\n      0x00\n        /* \"#utility.yul\":7891:7911   */\n      tag_200\n        /* \"#utility.yul\":7909:7910   */\n      dup3\n        /* \"#utility.yul\":7891:7911   */\n      tag_96\n      jump\t// in\n    tag_200:\n        /* \"#utility.yul\":7886:7911   */\n      swap2\n      pop\n        /* \"#utility.yul\":7925:7945   */\n      tag_201\n        /* \"#utility.yul\":7943:7944   */\n      dup4\n        /* \"#utility.yul\":7925:7945   */\n      tag_96\n      jump\t// in\n    tag_201:\n        /* \"#utility.yul\":7920:7945   */\n      swap3\n      pop\n        /* \"#utility.yul\":8113:8114   */\n      dup2\n        /* \"#utility.yul\":8045:8111   */\n      0xffffffffffffffffffffffffffffffffffffffffffffffffffffffffffffffff\n        /* \"#utility.yul\":8041:8115   */\n      div\n        /* \"#utility.yul\":8038:8039   */\n      dup4\n        /* \"#utility.yul\":8035:8116   */\n      gt\n        /* \"#utility.yul\":8030:8031   */\n      dup3\n        /* \"#utility.yul\":8023:8032   */\n      iszero\n        /* \"#utility.yul\":8016:8033   */\n      iszero\n        /* \"#utility.yul\":8012:8117   */\n      and\n        /* \"#utility.yul\":8009:8140   */\n      iszero\n      tag_202\n      jumpi\n        /* \"#utility.yul\":8120:8138   */\n      tag_203\n      tag_111\n      jump\t// in\n    tag_203:\n        /* \"#utility.yul\":8009:8140   */\n    tag_202:\n        /* \"#utility.yul\":8168:8169   */\n      dup3\n        /* \"#utility.yul\":8165:8166   */\n      dup3\n        /* \"#utility.yul\":8161:8170   */\n      mul\n        /* \"#utility.yul\":8150:8170   */\n      swap1\n      pop\n        /* \"#utility.yul\":7828:8176   */\n      swap3\n      swap2\n      pop\n      pop\n      jump\t// out\n        /* \"#utility.yul\":8182:8362   */\n    tag_119:\n        /* \"#utility.yul\":8230:8307   */\n      0x4e487b7100000000000000000000000000000000000000000000000000000000\n        /* \"#utility.yul\":8227:8228   */\n      0x00\n        /* \"#utility.yul\":8220:8308   */\n      mstore\n        /* \"#utility.yul\":8327:8331   */\n      0x12\n        /* \"#utility.yul\":8324:8325   */\n      0x04\n        /* \"#utility.yul\":8317:8332   */\n      mstore\n        /* \"#utility.yul\":8351:8355   */\n      0x24\n        /* \"#utility.yul\":8348:8349   */\n      0x00\n        /* \"#utility.yul\":8341:8356   */\n      revert\n        /* \"#utility.yul\":8368:8553   */\n    tag_80:\n        /* \"#utility.yul\":8408:8409   */\n      0x00\n        /* \"#utility.yul\":8425:8445   */\n      tag_206\n        /* \"#utility.yul\":8443:8444   */\n      dup3\n        /* \"#utility.yul\":8425:8445   */\n      tag_96\n      jump\t// in\n    tag_206:\n        /* \"#utility.yul\":8420:8445   */\n      swap2\n      pop\n        /* \"#utility.yul\":8459:8479   */\n      tag_207\n        /* \"#utility.yul\":8477:8478   */\n      dup4\n        /* \"#utility.yul\":8459:8479   */\n      tag_96\n      jump\t// in\n    tag_207:\n        /* \"#utility.yul\":8454:8479   */\n      swap3\n      pop\n        /* \"#utility.yul\":8498:8499   */\n      dup3\n        /* \"#utility.yul\":8488:8523   */\n      tag_208\n      jumpi\n        /* \"#utility.yul\":8503:8521   */\n      tag_209\n      tag_119\n      jump\t// in\n    tag_209:\n        /* \"#utility.yul\":8488:8523   */\n    tag_208:\n        /* \"#utility.yul\":8545:8546   */\n      dup3\n        /* \"#utility.yul\":8542:8543   */\n      dup3\n        /* \"#utility.yul\":8538:8547   */\n      div\n        /* \"#utility.yul\":8533:8547   */\n      swap1\n      pop\n        /* \"#utility.yul\":8368:8553   */\n      swap3\n      swap2\n      pop\n      pop\n      jump\t// out\n        /* \"#utility.yul\":8559:8664   */\n    tag_120:\n        /* \"#utility.yul\":8595:8602   */\n      0x00\n        /* \"#utility.yul\":8635:8657   */\n      0xffffffffffffffffffff\n        /* \"#utility.yul\":8628:8633   */\n      dup3\n        /* \"#utility.yul\":8624:8658   */\n      and\n        /* \"#utility.yul\":8613:8658   */\n      swap1\n      pop\n        /* \"#utility.yul\":8559:8664   */\n      swap2\n      swap1\n      pop\n      jump\t// out\n        /* \"#utility.yul\":8670:8790   */\n    tag_121:\n        /* \"#utility.yul\":8742:8765   */\n      tag_212\n        /* \"#utility.yul\":8759:8764   */\n      dup2\n        /* \"#utility.yul\":8742:8765   */\n      tag_120\n      jump\t// in\n    tag_212:\n        /* \"#utility.yul\":8735:8740   */\n      dup2\n        /* \"#utility.yul\":8732:8766   */\n      eq\n        /* \"#utility.yul\":8722:8784   */\n      tag_213\n      jumpi\n        /* \"#utility.yul\":8780:8781   */\n      0x00\n        /* \"#utility.yul\":8777:8778   */\n      dup1\n        /* \"#utility.yul\":8770:8782   */\n      revert\n        /* \"#utility.yul\":8722:8784   */\n    tag_213:\n        /* \"#utility.yul\":8670:8790   */\n      pop\n      jump\t// out\n        /* \"#utility.yul\":8796:8937   */\n    tag_122:\n        /* \"#utility.yul\":8852:8857   */\n      0x00\n        /* \"#utility.yul\":8883:8889   */\n      dup2\n        /* \"#utility.yul\":8877:8890   */\n      mload\n        /* \"#utility.yul\":8868:8890   */\n      swap1\n      pop\n        /* \"#utility.yul\":8899:8931   */\n      tag_215\n        /* \"#utility.yul\":8925:8930   */\n      dup2\n        /* \"#utility.yul\":8899:8931   */\n      tag_121\n      jump\t// in\n    tag_215:\n        /* \"#utility.yul\":8796:8937   */\n      swap3\n      swap2\n      pop\n      pop\n      jump\t// out\n        /* \"#utility.yul\":8943:9019   */\n    tag_123:\n        /* \"#utility.yul\":8979:8986   */\n      0x00\n        /* \"#utility.yul\":9008:9013   */\n      dup2\n        /* \"#utility.yul\":8997:9013   */\n      swap1\n      pop\n        /* \"#utility.yul\":8943:9019   */\n      swap2\n      swap1\n      pop\n      jump\t// out\n        /* \"#utility.yul\":9025:9145   */\n    tag_124:\n        /* \"#utility.yul\":9097:9120   */\n      tag_218\n        /* \"#utility.yul\":9114:9119   */\n      dup2\n        /* \"#utility.yul\":9097:9120   */\n      tag_123\n      jump\t// in\n    tag_218:\n        /* \"#utility.yul\":9090:9095   */\n      dup2\n        /* \"#utility.yul\":9087:9121   */\n      eq\n        /* \"#utility.yul\":9077:9139   */\n      tag_219\n      jumpi\n        /* \"#utility.yul\":9135:9136   */\n      0x00\n        /* \"#utility.yul\":9132:9133   */\n      dup1\n        /* \"#utility.yul\":9125:9137   */\n      revert\n        /* \"#utility.yul\":9077:9139   */\n    tag_219:\n        /* \"#utility.yul\":9025:9145   */\n      pop\n      jump\t// out\n        /* \"#utility.yul\":9151:9292   */\n    tag_125:\n        /* \"#utility.yul\":9207:9212   */\n      0x00\n        /* \"#utility.yul\":9238:9244   */\n      dup2\n        /* \"#utility.yul\":9232:9245   */\n      mload\n        /* \"#utility.yul\":9223:9245   */\n      swap1\n      pop\n        /* \"#utility.yul\":9254:9286   */\n      tag_221\n        /* \"#utility.yul\":9280:9285   */\n      dup2\n        /* \"#utility.yul\":9254:9286   */\n      tag_124\n      jump\t// in\n    tag_221:\n        /* \"#utility.yul\":9151:9292   */\n      swap3\n      swap2\n      pop\n      pop\n      jump\t// out\n        /* \"#utility.yul\":9298:9441   */\n    tag_126:\n        /* \"#utility.yul\":9355:9360   */\n      0x00\n        /* \"#utility.yul\":9386:9392   */\n      dup2\n        /* \"#utility.yul\":9380:9393   */\n      mload\n        /* \"#utility.yul\":9371:9393   */\n      swap1\n      pop\n        /* \"#utility.yul\":9402:9435   */\n      tag_223\n        /* \"#utility.yul\":9429:9434   */\n      dup2\n        /* \"#utility.yul\":9402:9435   */\n      tag_106\n      jump\t// in\n    tag_223:\n        /* \"#utility.yul\":9298:9441   */\n      swap3\n      swap2\n      pop\n      pop\n      jump\t// out\n        /* \"#utility.yul\":9447:10418   */\n    tag_86:\n        /* \"#utility.yul\":9550:9556   */\n      0x00\n        /* \"#utility.yul\":9558:9564   */\n      dup1\n        /* \"#utility.yul\":9566:9572   */\n      0x00\n        /* \"#utility.yul\":9574:9580   */\n      dup1\n        /* \"#utility.yul\":9582:9588   */\n      0x00\n        /* \"#utility.yul\":9631:9634   */\n      0xa0\n        /* \"#utility.yul\":9619:9628   */\n      dup7\n        /* \"#utility.yul\":9610:9617   */\n      dup9\n        /* \"#utility.yul\":9606:9629   */\n      sub\n        /* \"#utility.yul\":9602:9635   */\n      slt\n        /* \"#utility.yul\":9599:9719   */\n      iszero\n      tag_225\n      jumpi\n        /* \"#utility.yul\":9638:9717   */\n      tag_226\n      tag_99\n      jump\t// in\n    tag_226:\n        /* \"#utility.yul\":9599:9719   */\n    tag_225:\n        /* \"#utility.yul\":9758:9759   */\n      0x00\n        /* \"#utility.yul\":9783:9846   */\n      tag_227\n        /* \"#utility.yul\":9838:9845   */\n      dup9\n        /* \"#utility.yul\":9829:9835   */\n      dup3\n        /* \"#utility.yul\":9818:9827   */\n      dup10\n        /* \"#utility.yul\":9814:9836   */\n      add\n        /* \"#utility.yul\":9783:9846   */\n      tag_122\n      jump\t// in\n    tag_227:\n        /* \"#utility.yul\":9773:9846   */\n      swap6\n      pop\n        /* \"#utility.yul\":9729:9856   */\n      pop\n        /* \"#utility.yul\":9895:9897   */\n      0x20\n        /* \"#utility.yul\":9921:9984   */\n      tag_228\n        /* \"#utility.yul\":9976:9983   */\n      dup9\n        /* \"#utility.yul\":9967:9973   */\n      dup3\n        /* \"#utility.yul\":9956:9965   */\n      dup10\n        /* \"#utility.yul\":9952:9974   */\n      add\n        /* \"#utility.yul\":9921:9984   */\n      tag_125\n      jump\t// in\n    tag_228:\n        /* \"#utility.yul\":9911:9984   */\n      swap5\n      pop\n        /* \"#utility.yul\":9866:9994   */\n      pop\n        /* \"#utility.yul\":10033:10035   */\n      0x40\n        /* \"#utility.yul\":10059:10123   */\n      tag_229\n        /* \"#utility.yul\":10115:10122   */\n      dup9\n        /* \"#utility.yul\":10106:10112   */\n      dup3\n        /* \"#utility.yul\":10095:10104   */\n      dup10\n        /* \"#utility.yul\":10091:10113   */\n      add\n        /* \"#utility.yul\":10059:10123   */\n      tag_126\n      jump\t// in\n    tag_229:\n        /* \"#utility.yul\":10049:10123   */\n      swap4\n      pop\n        /* \"#utility.yul\":10004:10133   */\n      pop\n        /* \"#utility.yul\":10172:10174   */\n      0x60\n        /* \"#utility.yul\":10198:10262   */\n      tag_230\n        /* \"#utility.yul\":10254:10261   */\n      dup9\n        /* \"#utility.yul\":10245:10251   */\n      dup3\n        /* \"#utility.yul\":10234:10243   */\n      dup10\n        /* \"#utility.yul\":10230:10252   */\n      add\n        /* \"#utility.yul\":10198:10262   */\n      tag_126\n      jump\t// in\n    tag_230:\n        /* \"#utility.yul\":10188:10262   */\n      swap3\n      pop\n        /* \"#utility.yul\":10143:10272   */\n      pop\n        /* \"#utility.yul\":10311:10314   */\n      0x80\n        /* \"#utility.yul\":10338:10401   */\n      tag_231\n        /* \"#utility.yul\":10393:10400   */\n      dup9\n        /* \"#utility.yul\":10384:10390   */\n      dup3\n        /* \"#utility.yul\":10373:10382   */\n      dup10\n        /* \"#utility.yul\":10369:10391   */\n      add\n        /* \"#utility.yul\":10338:10401   */\n      tag_122\n      jump\t// in\n    tag_231:\n        /* \"#utility.yul\":10328:10401   */\n      swap2\n      pop\n        /* \"#utility.yul\":10282:10411   */\n      pop\n        /* \"#utility.yul\":9447:10418   */\n      swap3\n      swap6\n      pop\n      swap3\n      swap6\n      swap1\n      swap4\n      pop\n      jump\t// out\n        /* \"#utility.yul\":10424:11415   */\n    tag_88:\n        /* \"#utility.yul\":10463:10470   */\n      0x00\n        /* \"#utility.yul\":10486:10505   */\n      tag_233\n        /* \"#utility.yul\":10503:10504   */\n      dup3\n        /* \"#utility.yul\":10486:10505   */\n      tag_123\n      jump\t// in\n    tag_233:\n        /* \"#utility.yul\":10481:10505   */\n      swap2\n      pop\n        /* \"#utility.yul\":10519:10538   */\n      tag_234\n        /* \"#utility.yul\":10536:10537   */\n      dup4\n        /* \"#utility.yul\":10519:10538   */\n      tag_123\n      jump\t// in\n    tag_234:\n        /* \"#utility.yul\":10514:10538   */\n      swap3\n      pop\n        /* \"#utility.yul\":10720:10721   */\n      dup3\n        /* \"#utility.yul\":10652:10718   */\n      0x7fffffffffffffffffffffffffffffffffffffffffffffffffffffffffffffff\n        /* \"#utility.yul\":10648:10722   */\n      div\n        /* \"#utility.yul\":10645:10646   */\n      dup3\n        /* \"#utility.yul\":10642:10723   */\n      gt\n        /* \"#utility.yul\":10637:10638   */\n      0x00\n        /* \"#utility.yul\":10634:10635   */\n      dup5\n        /* \"#utility.yul\":10630:10639   */\n      sgt\n        /* \"#utility.yul\":10626:10627   */\n      0x00\n        /* \"#utility.yul\":10623:10624   */\n      dup5\n        /* \"#utility.yul\":10619:10628   */\n      sgt\n        /* \"#utility.yul\":10615:10640   */\n      and\n        /* \"#utility.yul\":10611:10724   */\n      and\n        /* \"#utility.yul\":10608:10747   */\n      iszero\n      tag_235\n      jumpi\n        /* \"#utility.yul\":10727:10745   */\n      tag_236\n      tag_111\n      jump\t// in\n    tag_236:\n        /* \"#utility.yul\":10608:10747   */\n    tag_235:\n        /* \"#utility.yul\":10931:10932   */\n      dup2\n        /* \"#utility.yul\":10863:10929   */\n      0x8000000000000000000000000000000000000000000000000000000000000000\n        /* \"#utility.yul\":10858:10933   */\n      sdiv\n        /* \"#utility.yul\":10855:10856   */\n      dup4\n        /* \"#utility.yul\":10851:10934   */\n      slt\n        /* \"#utility.yul\":10846:10847   */\n      0x00\n        /* \"#utility.yul\":10843:10844   */\n      dup5\n        /* \"#utility.yul\":10839:10848   */\n      slt\n        /* \"#utility.yul\":10835:10836   */\n      0x00\n        /* \"#utility.yul\":10832:10833   */\n      dup5\n        /* \"#utility.yul\":10828:10837   */\n      sgt\n        /* \"#utility.yul\":10824:10849   */\n      and\n        /* \"#utility.yul\":10820:10935   */\n      and\n        /* \"#utility.yul\":10817:10958   */\n      iszero\n      tag_237\n      jumpi\n        /* \"#utility.yul\":10938:10956   */\n      tag_238\n      tag_111\n      jump\t// in\n    tag_238:\n        /* \"#utility.yul\":10817:10958   */\n    tag_237:\n        /* \"#utility.yul\":11142:11143   */\n      dup3\n        /* \"#utility.yul\":11074:11140   */\n      0x8000000000000000000000000000000000000000000000000000000000000000\n        /* \"#utility.yul\":11069:11144   */\n      sdiv\n        /* \"#utility.yul\":11066:11067   */\n      dup3\n        /* \"#utility.yul\":11062:11145   */\n      slt\n        /* \"#utility.yul\":11057:11058   */\n      0x00\n        /* \"#utility.yul\":11054:11055   */\n      dup5\n        /* \"#utility.yul\":11050:11059   */\n      sgt\n        /* \"#utility.yul\":11046:11047   */\n      0x00\n        /* \"#utility.yul\":11043:11044   */\n      dup5\n        /* \"#utility.yul\":11039:11048   */\n      slt\n        /* \"#utility.yul\":11035:11060   */\n      and\n        /* \"#utility.yul\":11031:11146   */\n      and\n        /* \"#utility.yul\":11028:11169   */\n      iszero\n      tag_239\n      jumpi\n        /* \"#utility.yul\":11149:11167   */\n      tag_240\n      tag_111\n      jump\t// in\n    tag_240:\n        /* \"#utility.yul\":11028:11169   */\n    tag_239:\n        /* \"#utility.yul\":11352:11353   */\n      dup3\n        /* \"#utility.yul\":11284:11350   */\n      0x7fffffffffffffffffffffffffffffffffffffffffffffffffffffffffffffff\n        /* \"#utility.yul\":11279:11354   */\n      sdiv\n        /* \"#utility.yul\":11276:11277   */\n      dup3\n        /* \"#utility.yul\":11272:11355   */\n      slt\n        /* \"#utility.yul\":11267:11268   */\n      0x00\n        /* \"#utility.yul\":11264:11265   */\n      dup5\n        /* \"#utility.yul\":11260:11269   */\n      slt\n        /* \"#utility.yul\":11256:11257   */\n      0x00\n        /* \"#utility.yul\":11253:11254   */\n      dup5\n        /* \"#utility.yul\":11249:11258   */\n      slt\n        /* \"#utility.yul\":11245:11270   */\n      and\n        /* \"#utility.yul\":11241:11356   */\n      and\n        /* \"#utility.yul\":11238:11379   */\n      iszero\n      tag_241\n      jumpi\n        /* \"#utility.yul\":11359:11377   */\n      tag_242\n      tag_111\n      jump\t// in\n    tag_242:\n        /* \"#utility.yul\":11238:11379   */\n    tag_241:\n        /* \"#utility.yul\":11407:11408   */\n      dup3\n        /* \"#utility.yul\":11404:11405   */\n      dup3\n        /* \"#utility.yul\":11400:11409   */\n      mul\n        /* \"#utility.yul\":11389:11409   */\n      swap1\n      pop\n        /* \"#utility.yul\":10424:11415   */\n      swap3\n      swap2\n      pop\n      pop\n      jump\t// out\n\n    auxdata: 0xa26469706673582212203513eb8bd245d7a214dfbc9c52ecdc325dd6123224e3e48b26580f59cf23758c64736f6c63430008080033\n}\n",
				"bytecode": {
					"linkReferences": {},
					"object": "608060405234801561001057600080fd5b5033600260006101000a81548173ffffffffffffffffffffffffffffffffffffffff021916908373ffffffffffffffffffffffffffffffffffffffff160217905550610de8806100616000396000f3fe6080604052600436106100555760003560e01c80633430a88c1461005a5780633c7e7d28146100855780633ccfd60b146100c25780638da5cb5b146100d9578063b60d428814610104578063dc0d3dff1461010e575b600080fd5b34801561006657600080fd5b5061006f61014b565b60405161007c91906106e4565b60405180910390f35b34801561009157600080fd5b506100ac60048036038101906100a79190610762565b610158565b6040516100b991906106e4565b60405180910390f35b3480156100ce57600080fd5b506100d7610170565b005b3480156100e557600080fd5b506100ee6103bb565b6040516100fb919061079e565b60405180910390f35b61010c6103e1565b005b34801561011a57600080fd5b50610135600480360381019061013091906107e5565b6104f0565b604051610142919061079e565b60405180910390f35b6802b5e3af16b188000081565b60016020528060005260406000206000915090505481565b600260009054906101000a900473ffffffffffffffffffffffffffffffffffffffff1673ffffffffffffffffffffffffffffffffffffffff163373ffffffffffffffffffffffffffffffffffffffff1614610200576040517f08c379a00000000000000000000000000000000000000000000000000000000081526004016101f79061086f565b60405180910390fd5b60005b6000805490508110156102ab5760008082815481106102255761022461088f565b5b9060005260206000200160009054906101000a900473ffffffffffffffffffffffffffffffffffffffff1690506000600160008373ffffffffffffffffffffffffffffffffffffffff1673ffffffffffffffffffffffffffffffffffffffff168152602001908152602001600020819055505080806102a3906108ed565b915050610203565b50600067ffffffffffffffff8111156102c7576102c6610936565b5b6040519080825280602002602001820160405280156102f55781602001602082028036833780820191505090505b506000908051906020019061030b929190610624565b5060003373ffffffffffffffffffffffffffffffffffffffff164760405161033290610996565b60006040518083038185875af1925050503d806000811461036f576040519150601f19603f3d011682016040523d82523d6000602084013e610374565b606091505b50509050806103b8576040517f08c379a00000000000000000000000000000000000000000000000000000000081526004016103af906109f7565b60405180910390fd5b50565b600260009054906101000a900473ffffffffffffffffffffffffffffffffffffffff1681565b6802b5e3af16b18800006103f43461052f565b1015610435576040517f08c379a000000000000000000000000000000000000000000000000000000000815260040161042c90610a63565b60405180910390fd5b6000339080600181540180825580915050600190039060005260206000200160009091909190916101000a81548173ffffffffffffffffffffffffffffffffffffffff021916908373ffffffffffffffffffffffffffffffffffffffff16021790555034600160003373ffffffffffffffffffffffffffffffffffffffff1673ffffffffffffffffffffffffffffffffffffffff16815260200190815260200160002060008282546104e79190610a83565b92505081905550565b6000818154811061050057600080fd5b906000526020600020016000915054906101000a900473ffffffffffffffffffffffffffffffffffffffff1681565b60008061053a610569565b90506000670de0b6b3a764000082856105539190610ad9565b61055d9190610b62565b90508092505050919050565b60008073694aa1769357215de4fac081bf1f309adc325306905060008173ffffffffffffffffffffffffffffffffffffffff1663feaf968c6040518163ffffffff1660e01b815260040160a06040518083038186803b1580156105cb57600080fd5b505afa1580156105df573d6000803e3d6000fd5b505050506040513d601f19601f820116820180604052508101906106039190610c20565b505050915050670de0b6b3a76400008161061d9190610c9b565b9250505090565b82805482825590600052602060002090810192821561069d579160200282015b8281111561069c5782518260006101000a81548173ffffffffffffffffffffffffffffffffffffffff021916908373ffffffffffffffffffffffffffffffffffffffff16021790555091602001919060010190610644565b5b5090506106aa91906106ae565b5090565b5b808211156106c75760008160009055506001016106af565b5090565b6000819050919050565b6106de816106cb565b82525050565b60006020820190506106f960008301846106d5565b92915050565b600080fd5b600073ffffffffffffffffffffffffffffffffffffffff82169050919050565b600061072f82610704565b9050919050565b61073f81610724565b811461074a57600080fd5b50565b60008135905061075c81610736565b92915050565b600060208284031215610778576107776106ff565b5b60006107868482850161074d565b91505092915050565b61079881610724565b82525050565b60006020820190506107b3600083018461078f565b92915050565b6107c2816106cb565b81146107cd57600080fd5b50565b6000813590506107df816107b9565b92915050565b6000602082840312156107fb576107fa6106ff565b5b6000610809848285016107d0565b91505092915050565b600082825260208201905092915050565b7f53656e646572206973206e6f74204f776e657200000000000000000000000000600082015250565b6000610859601383610812565b915061086482610823565b602082019050919050565b600060208201905081810360008301526108888161084c565b9050919050565b7f4e487b7100000000000000000000000000000000000000000000000000000000600052603260045260246000fd5b7f4e487b7100000000000000000000000000000000000000000000000000000000600052601160045260246000fd5b60006108f8826106cb565b91507fffffffffffffffffffffffffffffffffffffffffffffffffffffffffffffffff82141561092b5761092a6108be565b5b600182019050919050565b7f4e487b7100000000000000000000000000000000000000000000000000000000600052604160045260246000fd5b600081905092915050565b50565b6000610980600083610965565b915061098b82610970565b600082019050919050565b60006109a182610973565b9150819050919050565b7f5769746864726177206661696c65640000000000000000000000000000000000600082015250565b60006109e1600f83610812565b91506109ec826109ab565b602082019050919050565b60006020820190508181036000830152610a10816109d4565b9050919050565b7f4e6f7420456e6f75676820457468657265756d00000000000000000000000000600082015250565b6000610a4d601383610812565b9150610a5882610a17565b602082019050919050565b60006020820190508181036000830152610a7c81610a40565b9050919050565b6000610a8e826106cb565b9150610a99836106cb565b9250827fffffffffffffffffffffffffffffffffffffffffffffffffffffffffffffffff03821115610ace57610acd6108be565b5b828201905092915050565b6000610ae4826106cb565b9150610aef836106cb565b9250817fffffffffffffffffffffffffffffffffffffffffffffffffffffffffffffffff0483118215151615610b2857610b276108be565b5b828202905092915050565b7f4e487b7100000000000000000000000000000000000000000000000000000000600052601260045260246000fd5b6000610b6d826106cb565b9150610b78836106cb565b925082610b8857610b87610b33565b5b828204905092915050565b600069ffffffffffffffffffff82169050919050565b610bb281610b93565b8114610bbd57600080fd5b50565b600081519050610bcf81610ba9565b92915050565b6000819050919050565b610be881610bd5565b8114610bf357600080fd5b50565b600081519050610c0581610bdf565b92915050565b600081519050610c1a816107b9565b92915050565b600080600080600060a08688031215610c3c57610c3b6106ff565b5b6000610c4a88828901610bc0565b9550506020610c5b88828901610bf6565b9450506040610c6c88828901610c0b565b9350506060610c7d88828901610c0b565b9250506080610c8e88828901610bc0565b9150509295509295909350565b6000610ca682610bd5565b9150610cb183610bd5565b9250827f7fffffffffffffffffffffffffffffffffffffffffffffffffffffffffffffff0482116000841360008413161615610cf057610cef6108be565b5b817f80000000000000000000000000000000000000000000000000000000000000000583126000841260008413161615610d2d57610d2c6108be565b5b827f80000000000000000000000000000000000000000000000000000000000000000582126000841360008412161615610d6a57610d696108be565b5b827f7fffffffffffffffffffffffffffffffffffffffffffffffffffffffffffffff0582126000841260008412161615610da757610da66108be565b5b82820290509291505056fea26469706673582212203513eb8bd245d7a214dfbc9c52ecdc325dd6123224e3e48b26580f59cf23758c64736f6c63430008080033",
					"opcodes": "PUSH1 0x80 PUSH1 0x40 MSTORE CALLVALUE DUP1 ISZERO PUSH2 0x10 JUMPI PUSH1 0x0 DUP1 REVERT JUMPDEST POP CALLER PUSH1 0x2 PUSH1 0x0 PUSH2 0x100 EXP DUP2 SLOAD DUP2 PUSH20 0xFFFFFFFFFFFFFFFFFFFFFFFFFFFFFFFFFFFFFFFF MUL NOT AND SWAP1 DUP4 PUSH20 0xFFFFFFFFFFFFFFFFFFFFFFFFFFFFFFFFFFFFFFFF AND MUL OR SWAP1 SSTORE POP PUSH2 0xDE8 DUP1 PUSH2 0x61 PUSH1 0x0 CODECOPY PUSH1 0x0 RETURN INVALID PUSH1 0x80 PUSH1 0x40 MSTORE PUSH1 0x4 CALLDATASIZE LT PUSH2 0x55 JUMPI PUSH1 0x0 CALLDATALOAD PUSH1 0xE0 SHR DUP1 PUSH4 0x3430A88C EQ PUSH2 0x5A JUMPI DUP1 PUSH4 0x3C7E7D28 EQ PUSH2 0x85 JUMPI DUP1 PUSH4 0x3CCFD60B EQ PUSH2 0xC2 JUMPI DUP1 PUSH4 0x8DA5CB5B EQ PUSH2 0xD9 JUMPI DUP1 PUSH4 0xB60D4288 EQ PUSH2 0x104 JUMPI DUP1 PUSH4 0xDC0D3DFF EQ PUSH2 0x10E JUMPI JUMPDEST PUSH1 0x0 DUP1 REVERT JUMPDEST CALLVALUE DUP1 ISZERO PUSH2 0x66 JUMPI PUSH1 0x0 DUP1 REVERT JUMPDEST POP PUSH2 0x6F PUSH2 0x14B JUMP JUMPDEST PUSH1 0x40 MLOAD PUSH2 0x7C SWAP2 SWAP1 PUSH2 0x6E4 JUMP JUMPDEST PUSH1 0x40 MLOAD DUP1 SWAP2 SUB SWAP1 RETURN JUMPDEST CALLVALUE DUP1 ISZERO PUSH2 0x91 JUMPI PUSH1 0x0 DUP1 REVERT JUMPDEST POP PUSH2 0xAC PUSH1 0x4 DUP1 CALLDATASIZE SUB DUP2 ADD SWAP1 PUSH2 0xA7 SWAP2 SWAP1 PUSH2 0x762 JUMP JUMPDEST PUSH2 0x158 JUMP JUMPDEST PUSH1 0x40 MLOAD PUSH2 0xB9 SWAP2 SWAP1 PUSH2 0x6E4 JUMP JUMPDEST PUSH1 0x40 MLOAD DUP1 SWAP2 SUB SWAP1 RETURN JUMPDEST CALLVALUE DUP1 ISZERO PUSH2 0xCE JUMPI PUSH1 0x0 DUP1 REVERT JUMPDEST POP PUSH2 0xD7 PUSH2 0x170 JUMP JUMPDEST STOP JUMPDEST CALLVALUE DUP1 ISZERO PUSH2 0xE5 JUMPI PUSH1 0x0 DUP1 REVERT JUMPDEST POP PUSH2 0xEE PUSH2 0x3BB JUMP JUMPDEST PUSH1 0x40 MLOAD PUSH2 0xFB SWAP2 SWAP1 PUSH2 0x79E JUMP JUMPDEST PUSH1 0x40 MLOAD DUP1 SWAP2 SUB SWAP1 RETURN JUMPDEST PUSH2 0x10C PUSH2 0x3E1 JUMP JUMPDEST STOP JUMPDEST CALLVALUE DUP1 ISZERO PUSH2 0x11A JUMPI PUSH1 0x0 DUP1 REVERT JUMPDEST POP PUSH2 0x135 PUSH1 0x4 DUP1 CALLDATASIZE SUB DUP2 ADD SWAP1 PUSH2 0x130 SWAP2 SWAP1 PUSH2 0x7E5 JUMP JUMPDEST PUSH2 0x4F0 JUMP JUMPDEST PUSH1 0x40 MLOAD PUSH2 0x142 SWAP2 SWAP1 PUSH2 0x79E JUMP JUMPDEST PUSH1 0x40 MLOAD DUP1 SWAP2 SUB SWAP1 RETURN JUMPDEST PUSH9 0x2B5E3AF16B1880000 DUP2 JUMP JUMPDEST PUSH1 0x1 PUSH1 0x20 MSTORE DUP1 PUSH1 0x0 MSTORE PUSH1 0x40 PUSH1 0x0 KECCAK256 PUSH1 0x0 SWAP2 POP SWAP1 POP SLOAD DUP2 JUMP JUMPDEST PUSH1 0x2 PUSH1 0x0 SWAP1 SLOAD SWAP1 PUSH2 0x100 EXP SWAP1 DIV PUSH20 0xFFFFFFFFFFFFFFFFFFFFFFFFFFFFFFFFFFFFFFFF AND PUSH20 0xFFFFFFFFFFFFFFFFFFFFFFFFFFFFFFFFFFFFFFFF AND CALLER PUSH20 0xFFFFFFFFFFFFFFFFFFFFFFFFFFFFFFFFFFFFFFFF AND EQ PUSH2 0x200 JUMPI PUSH1 0x40 MLOAD PUSH32 0x8C379A000000000000000000000000000000000000000000000000000000000 DUP2 MSTORE PUSH1 0x4 ADD PUSH2 0x1F7 SWAP1 PUSH2 0x86F JUMP JUMPDEST PUSH1 0x40 MLOAD DUP1 SWAP2 SUB SWAP1 REVERT JUMPDEST PUSH1 0x0 JUMPDEST PUSH1 0x0 DUP1 SLOAD SWAP1 POP DUP2 LT ISZERO PUSH2 0x2AB JUMPI PUSH1 0x0 DUP1 DUP3 DUP2 SLOAD DUP2 LT PUSH2 0x225 JUMPI PUSH2 0x224 PUSH2 0x88F JUMP JUMPDEST JUMPDEST SWAP1 PUSH1 0x0 MSTORE PUSH1 0x20 PUSH1 0x0 KECCAK256 ADD PUSH1 0x0 SWAP1 SLOAD SWAP1 PUSH2 0x100 EXP SWAP1 DIV PUSH20 0xFFFFFFFFFFFFFFFFFFFFFFFFFFFFFFFFFFFFFFFF AND SWAP1 POP PUSH1 0x0 PUSH1 0x1 PUSH1 0x0 DUP4 PUSH20 0xFFFFFFFFFFFFFFFFFFFFFFFFFFFFFFFFFFFFFFFF AND PUSH20 0xFFFFFFFFFFFFFFFFFFFFFFFFFFFFFFFFFFFFFFFF AND DUP2 MSTORE PUSH1 0x20 ADD SWAP1 DUP2 MSTORE PUSH1 0x20 ADD PUSH1 0x0 KECCAK256 DUP2 SWAP1 SSTORE POP POP DUP1 DUP1 PUSH2 0x2A3 SWAP1 PUSH2 0x8ED JUMP JUMPDEST SWAP2 POP POP PUSH2 0x203 JUMP JUMPDEST POP PUSH1 0x0 PUSH8 0xFFFFFFFFFFFFFFFF DUP2 GT ISZERO PUSH2 0x2C7 JUMPI PUSH2 0x2C6 PUSH2 0x936 JUMP JUMPDEST JUMPDEST PUSH1 0x40 MLOAD SWAP1 DUP1 DUP3 MSTORE DUP1 PUSH1 0x20 MUL PUSH1 0x20 ADD DUP3 ADD PUSH1 0x40 MSTORE DUP1 ISZERO PUSH2 0x2F5 JUMPI DUP2 PUSH1 0x20 ADD PUSH1 0x20 DUP3 MUL DUP1 CALLDATASIZE DUP4 CALLDATACOPY DUP1 DUP3 ADD SWAP2 POP POP SWAP1 POP JUMPDEST POP PUSH1 0x0 SWAP1 DUP1 MLOAD SWAP1 PUSH1 0x20 ADD SWAP1 PUSH2 0x30B SWAP3 SWAP2 SWAP1 PUSH2 0x624 JUMP JUMPDEST POP PUSH1 0x0 CALLER PUSH20 0xFFFFFFFFFFFFFFFFFFFFFFFFFFFFFFFFFFFFFFFF AND SELFBALANCE PUSH1 0x40 MLOAD PUSH2 0x332 SWAP1 PUSH2 0x996 JUMP JUMPDEST PUSH1 0x0 PUSH1 0x40 MLOAD DUP1 DUP4 SUB DUP2 DUP6 DUP8 GAS CALL SWAP3 POP POP POP RETURNDATASIZE DUP1 PUSH1 0x0 DUP2 EQ PUSH2 0x36F JUMPI PUSH1 0x40 MLOAD SWAP2 POP PUSH1 0x1F NOT PUSH1 0x3F RETURNDATASIZE ADD AND DUP3 ADD PUSH1 0x40 MSTORE RETURNDATASIZE DUP3 MSTORE RETURNDATASIZE PUSH1 0x0 PUSH1 0x20 DUP5 ADD RETURNDATACOPY PUSH2 0x374 JUMP JUMPDEST PUSH1 0x60 SWAP2 POP JUMPDEST POP POP SWAP1 POP DUP1 PUSH2 0x3B8 JUMPI PUSH1 0x40 MLOAD PUSH32 0x8C379A000000000000000000000000000000000000000000000000000000000 DUP2 MSTORE PUSH1 0x4 ADD PUSH2 0x3AF SWAP1 PUSH2 0x9F7 JUMP JUMPDEST PUSH1 0x40 MLOAD DUP1 SWAP2 SUB SWAP1 REVERT JUMPDEST POP JUMP JUMPDEST PUSH1 0x2 PUSH1 0x0 SWAP1 SLOAD SWAP1 PUSH2 0x100 EXP SWAP1 DIV PUSH20 0xFFFFFFFFFFFFFFFFFFFFFFFFFFFFFFFFFFFFFFFF AND DUP2 JUMP JUMPDEST PUSH9 0x2B5E3AF16B1880000 PUSH2 0x3F4 CALLVALUE PUSH2 0x52F JUMP JUMPDEST LT ISZERO PUSH2 0x435 JUMPI PUSH1 0x40 MLOAD PUSH32 0x8C379A000000000000000000000000000000000000000000000000000000000 DUP2 MSTORE PUSH1 0x4 ADD PUSH2 0x42C SWAP1 PUSH2 0xA63 JUMP JUMPDEST PUSH1 0x40 MLOAD DUP1 SWAP2 SUB SWAP1 REVERT JUMPDEST PUSH1 0x0 CALLER SWAP1 DUP1 PUSH1 0x1 DUP2 SLOAD ADD DUP1 DUP3 SSTORE DUP1 SWAP2 POP POP PUSH1 0x1 SWAP1 SUB SWAP1 PUSH1 0x0 MSTORE PUSH1 0x20 PUSH1 0x0 KECCAK256 ADD PUSH1 0x0 SWAP1 SWAP2 SWAP1 SWAP2 SWAP1 SWAP2 PUSH2 0x100 EXP DUP2 SLOAD DUP2 PUSH20 0xFFFFFFFFFFFFFFFFFFFFFFFFFFFFFFFFFFFFFFFF MUL NOT AND SWAP1 DUP4 PUSH20 0xFFFFFFFFFFFFFFFFFFFFFFFFFFFFFFFFFFFFFFFF AND MUL OR SWAP1 SSTORE POP CALLVALUE PUSH1 0x1 PUSH1 0x0 CALLER PUSH20 0xFFFFFFFFFFFFFFFFFFFFFFFFFFFFFFFFFFFFFFFF AND PUSH20 0xFFFFFFFFFFFFFFFFFFFFFFFFFFFFFFFFFFFFFFFF AND DUP2 MSTORE PUSH1 0x20 ADD SWAP1 DUP2 MSTORE PUSH1 0x20 ADD PUSH1 0x0 KECCAK256 PUSH1 0x0 DUP3 DUP3 SLOAD PUSH2 0x4E7 SWAP2 SWAP1 PUSH2 0xA83 JUMP JUMPDEST SWAP3 POP POP DUP2 SWAP1 SSTORE POP JUMP JUMPDEST PUSH1 0x0 DUP2 DUP2 SLOAD DUP2 LT PUSH2 0x500 JUMPI PUSH1 0x0 DUP1 REVERT JUMPDEST SWAP1 PUSH1 0x0 MSTORE PUSH1 0x20 PUSH1 0x0 KECCAK256 ADD PUSH1 0x0 SWAP2 POP SLOAD SWAP1 PUSH2 0x100 EXP SWAP1 DIV PUSH20 0xFFFFFFFFFFFFFFFFFFFFFFFFFFFFFFFFFFFFFFFF AND DUP2 JUMP JUMPDEST PUSH1 0x0 DUP1 PUSH2 0x53A PUSH2 0x569 JUMP JUMPDEST SWAP1 POP PUSH1 0x0 PUSH8 0xDE0B6B3A7640000 DUP3 DUP6 PUSH2 0x553 SWAP2 SWAP1 PUSH2 0xAD9 JUMP JUMPDEST PUSH2 0x55D SWAP2 SWAP1 PUSH2 0xB62 JUMP JUMPDEST SWAP1 POP DUP1 SWAP3 POP POP POP SWAP2 SWAP1 POP JUMP JUMPDEST PUSH1 0x0 DUP1 PUSH20 0x694AA1769357215DE4FAC081BF1F309ADC325306 SWAP1 POP PUSH1 0x0 DUP2 PUSH20 0xFFFFFFFFFFFFFFFFFFFFFFFFFFFFFFFFFFFFFFFF AND PUSH4 0xFEAF968C PUSH1 0x40 MLOAD DUP2 PUSH4 0xFFFFFFFF AND PUSH1 0xE0 SHL DUP2 MSTORE PUSH1 0x4 ADD PUSH1 0xA0 PUSH1 0x40 MLOAD DUP1 DUP4 SUB DUP2 DUP7 DUP1 EXTCODESIZE ISZERO DUP1 ISZERO PUSH2 0x5CB JUMPI PUSH1 0x0 DUP1 REVERT JUMPDEST POP GAS STATICCALL ISZERO DUP1 ISZERO PUSH2 0x5DF JUMPI RETURNDATASIZE PUSH1 0x0 DUP1 RETURNDATACOPY RETURNDATASIZE PUSH1 0x0 REVERT JUMPDEST POP POP POP POP PUSH1 0x40 MLOAD RETURNDATASIZE PUSH1 0x1F NOT PUSH1 0x1F DUP3 ADD AND DUP3 ADD DUP1 PUSH1 0x40 MSTORE POP DUP2 ADD SWAP1 PUSH2 0x603 SWAP2 SWAP1 PUSH2 0xC20 JUMP JUMPDEST POP POP POP SWAP2 POP POP PUSH8 0xDE0B6B3A7640000 DUP2 PUSH2 0x61D SWAP2 SWAP1 PUSH2 0xC9B JUMP JUMPDEST SWAP3 POP POP POP SWAP1 JUMP JUMPDEST DUP3 DUP1 SLOAD DUP3 DUP3 SSTORE SWAP1 PUSH1 0x0 MSTORE PUSH1 0x20 PUSH1 0x0 KECCAK256 SWAP1 DUP2 ADD SWAP3 DUP3 ISZERO PUSH2 0x69D JUMPI SWAP2 PUSH1 0x20 MUL DUP3 ADD JUMPDEST DUP3 DUP2 GT ISZERO PUSH2 0x69C JUMPI DUP3 MLOAD DUP3 PUSH1 0x0 PUSH2 0x100 EXP DUP2 SLOAD DUP2 PUSH20 0xFFFFFFFFFFFFFFFFFFFFFFFFFFFFFFFFFFFFFFFF MUL NOT AND SWAP1 DUP4 PUSH20 0xFFFFFFFFFFFFFFFFFFFFFFFFFFFFFFFFFFFFFFFF AND MUL OR SWAP1 SSTORE POP SWAP2 PUSH1 0x20 ADD SWAP2 SWAP1 PUSH1 0x1 ADD SWAP1 PUSH2 0x644 JUMP JUMPDEST JUMPDEST POP SWAP1 POP PUSH2 0x6AA SWAP2 SWAP1 PUSH2 0x6AE JUMP JUMPDEST POP SWAP1 JUMP JUMPDEST JUMPDEST DUP1 DUP3 GT ISZERO PUSH2 0x6C7 JUMPI PUSH1 0x0 DUP2 PUSH1 0x0 SWAP1 SSTORE POP PUSH1 0x1 ADD PUSH2 0x6AF JUMP JUMPDEST POP SWAP1 JUMP JUMPDEST PUSH1 0x0 DUP2 SWAP1 POP SWAP2 SWAP1 POP JUMP JUMPDEST PUSH2 0x6DE DUP2 PUSH2 0x6CB JUMP JUMPDEST DUP3 MSTORE POP POP JUMP JUMPDEST PUSH1 0x0 PUSH1 0x20 DUP3 ADD SWAP1 POP PUSH2 0x6F9 PUSH1 0x0 DUP4 ADD DUP5 PUSH2 0x6D5 JUMP JUMPDEST SWAP3 SWAP2 POP POP JUMP JUMPDEST PUSH1 0x0 DUP1 REVERT JUMPDEST PUSH1 0x0 PUSH20 0xFFFFFFFFFFFFFFFFFFFFFFFFFFFFFFFFFFFFFFFF DUP3 AND SWAP1 POP SWAP2 SWAP1 POP JUMP JUMPDEST PUSH1 0x0 PUSH2 0x72F DUP3 PUSH2 0x704 JUMP JUMPDEST SWAP1 POP SWAP2 SWAP1 POP JUMP JUMPDEST PUSH2 0x73F DUP2 PUSH2 0x724 JUMP JUMPDEST DUP2 EQ PUSH2 0x74A JUMPI PUSH1 0x0 DUP1 REVERT JUMPDEST POP JUMP JUMPDEST PUSH1 0x0 DUP2 CALLDATALOAD SWAP1 POP PUSH2 0x75C DUP2 PUSH2 0x736 JUMP JUMPDEST SWAP3 SWAP2 POP POP JUMP JUMPDEST PUSH1 0x0 PUSH1 0x20 DUP3 DUP5 SUB SLT ISZERO PUSH2 0x778 JUMPI PUSH2 0x777 PUSH2 0x6FF JUMP JUMPDEST JUMPDEST PUSH1 0x0 PUSH2 0x786 DUP5 DUP3 DUP6 ADD PUSH2 0x74D JUMP JUMPDEST SWAP2 POP POP SWAP3 SWAP2 POP POP JUMP JUMPDEST PUSH2 0x798 DUP2 PUSH2 0x724 JUMP JUMPDEST DUP3 MSTORE POP POP JUMP JUMPDEST PUSH1 0x0 PUSH1 0x20 DUP3 ADD SWAP1 POP PUSH2 0x7B3 PUSH1 0x0 DUP4 ADD DUP5 PUSH2 0x78F JUMP JUMPDEST SWAP3 SWAP2 POP POP JUMP JUMPDEST PUSH2 0x7C2 DUP2 PUSH2 0x6CB JUMP JUMPDEST DUP2 EQ PUSH2 0x7CD JUMPI PUSH1 0x0 DUP1 REVERT JUMPDEST POP JUMP JUMPDEST PUSH1 0x0 DUP2 CALLDATALOAD SWAP1 POP PUSH2 0x7DF DUP2 PUSH2 0x7B9 JUMP JUMPDEST SWAP3 SWAP2 POP POP JUMP JUMPDEST PUSH1 0x0 PUSH1 0x20 DUP3 DUP5 SUB SLT ISZERO PUSH2 0x7FB JUMPI PUSH2 0x7FA PUSH2 0x6FF JUMP JUMPDEST JUMPDEST PUSH1 0x0 PUSH2 0x809 DUP5 DUP3 DUP6 ADD PUSH2 0x7D0 JUMP JUMPDEST SWAP2 POP POP SWAP3 SWAP2 POP POP JUMP JUMPDEST PUSH1 0x0 DUP3 DUP3 MSTORE PUSH1 0x20 DUP3 ADD SWAP1 POP SWAP3 SWAP2 POP POP JUMP JUMPDEST PUSH32 0x53656E646572206973206E6F74204F776E657200000000000000000000000000 PUSH1 0x0 DUP3 ADD MSTORE POP JUMP JUMPDEST PUSH1 0x0 PUSH2 0x859 PUSH1 0x13 DUP4 PUSH2 0x812 JUMP JUMPDEST SWAP2 POP PUSH2 0x864 DUP3 PUSH2 0x823 JUMP JUMPDEST PUSH1 0x20 DUP3 ADD SWAP1 POP SWAP2 SWAP1 POP JUMP JUMPDEST PUSH1 0x0 PUSH1 0x20 DUP3 ADD SWAP1 POP DUP2 DUP2 SUB PUSH1 0x0 DUP4 ADD MSTORE PUSH2 0x888 DUP2 PUSH2 0x84C JUMP JUMPDEST SWAP1 POP SWAP2 SWAP1 POP JUMP JUMPDEST PUSH32 0x4E487B7100000000000000000000000000000000000000000000000000000000 PUSH1 0x0 MSTORE PUSH1 0x32 PUSH1 0x4 MSTORE PUSH1 0x24 PUSH1 0x0 REVERT JUMPDEST PUSH32 0x4E487B7100000000000000000000000000000000000000000000000000000000 PUSH1 0x0 MSTORE PUSH1 0x11 PUSH1 0x4 MSTORE PUSH1 0x24 PUSH1 0x0 REVERT JUMPDEST PUSH1 0x0 PUSH2 0x8F8 DUP3 PUSH2 0x6CB JUMP JUMPDEST SWAP2 POP PUSH32 0xFFFFFFFFFFFFFFFFFFFFFFFFFFFFFFFFFFFFFFFFFFFFFFFFFFFFFFFFFFFFFFFF DUP3 EQ ISZERO PUSH2 0x92B JUMPI PUSH2 0x92A PUSH2 0x8BE JUMP JUMPDEST JUMPDEST PUSH1 0x1 DUP3 ADD SWAP1 POP SWAP2 SWAP1 POP JUMP JUMPDEST PUSH32 0x4E487B7100000000000000000000000000000000000000000000000000000000 PUSH1 0x0 MSTORE PUSH1 0x41 PUSH1 0x4 MSTORE PUSH1 0x24 PUSH1 0x0 REVERT JUMPDEST PUSH1 0x0 DUP2 SWAP1 POP SWAP3 SWAP2 POP POP JUMP JUMPDEST POP JUMP JUMPDEST PUSH1 0x0 PUSH2 0x980 PUSH1 0x0 DUP4 PUSH2 0x965 JUMP JUMPDEST SWAP2 POP PUSH2 0x98B DUP3 PUSH2 0x970 JUMP JUMPDEST PUSH1 0x0 DUP3 ADD SWAP1 POP SWAP2 SWAP1 POP JUMP JUMPDEST PUSH1 0x0 PUSH2 0x9A1 DUP3 PUSH2 0x973 JUMP JUMPDEST SWAP2 POP DUP2 SWAP1 POP SWAP2 SWAP1 POP JUMP JUMPDEST PUSH32 0x5769746864726177206661696C65640000000000000000000000000000000000 PUSH1 0x0 DUP3 ADD MSTORE POP JUMP JUMPDEST PUSH1 0x0 PUSH2 0x9E1 PUSH1 0xF DUP4 PUSH2 0x812 JUMP JUMPDEST SWAP2 POP PUSH2 0x9EC DUP3 PUSH2 0x9AB JUMP JUMPDEST PUSH1 0x20 DUP3 ADD SWAP1 POP SWAP2 SWAP1 POP JUMP JUMPDEST PUSH1 0x0 PUSH1 0x20 DUP3 ADD SWAP1 POP DUP2 DUP2 SUB PUSH1 0x0 DUP4 ADD MSTORE PUSH2 0xA10 DUP2 PUSH2 0x9D4 JUMP JUMPDEST SWAP1 POP SWAP2 SWAP1 POP JUMP JUMPDEST PUSH32 0x4E6F7420456E6F75676820457468657265756D00000000000000000000000000 PUSH1 0x0 DUP3 ADD MSTORE POP JUMP JUMPDEST PUSH1 0x0 PUSH2 0xA4D PUSH1 0x13 DUP4 PUSH2 0x812 JUMP JUMPDEST SWAP2 POP PUSH2 0xA58 DUP3 PUSH2 0xA17 JUMP JUMPDEST PUSH1 0x20 DUP3 ADD SWAP1 POP SWAP2 SWAP1 POP JUMP JUMPDEST PUSH1 0x0 PUSH1 0x20 DUP3 ADD SWAP1 POP DUP2 DUP2 SUB PUSH1 0x0 DUP4 ADD MSTORE PUSH2 0xA7C DUP2 PUSH2 0xA40 JUMP JUMPDEST SWAP1 POP SWAP2 SWAP1 POP JUMP JUMPDEST PUSH1 0x0 PUSH2 0xA8E DUP3 PUSH2 0x6CB JUMP JUMPDEST SWAP2 POP PUSH2 0xA99 DUP4 PUSH2 0x6CB JUMP JUMPDEST SWAP3 POP DUP3 PUSH32 0xFFFFFFFFFFFFFFFFFFFFFFFFFFFFFFFFFFFFFFFFFFFFFFFFFFFFFFFFFFFFFFFF SUB DUP3 GT ISZERO PUSH2 0xACE JUMPI PUSH2 0xACD PUSH2 0x8BE JUMP JUMPDEST JUMPDEST DUP3 DUP3 ADD SWAP1 POP SWAP3 SWAP2 POP POP JUMP JUMPDEST PUSH1 0x0 PUSH2 0xAE4 DUP3 PUSH2 0x6CB JUMP JUMPDEST SWAP2 POP PUSH2 0xAEF DUP4 PUSH2 0x6CB JUMP JUMPDEST SWAP3 POP DUP2 PUSH32 0xFFFFFFFFFFFFFFFFFFFFFFFFFFFFFFFFFFFFFFFFFFFFFFFFFFFFFFFFFFFFFFFF DIV DUP4 GT DUP3 ISZERO ISZERO AND ISZERO PUSH2 0xB28 JUMPI PUSH2 0xB27 PUSH2 0x8BE JUMP JUMPDEST JUMPDEST DUP3 DUP3 MUL SWAP1 POP SWAP3 SWAP2 POP POP JUMP JUMPDEST PUSH32 0x4E487B7100000000000000000000000000000000000000000000000000000000 PUSH1 0x0 MSTORE PUSH1 0x12 PUSH1 0x4 MSTORE PUSH1 0x24 PUSH1 0x0 REVERT JUMPDEST PUSH1 0x0 PUSH2 0xB6D DUP3 PUSH2 0x6CB JUMP JUMPDEST SWAP2 POP PUSH2 0xB78 DUP4 PUSH2 0x6CB JUMP JUMPDEST SWAP3 POP DUP3 PUSH2 0xB88 JUMPI PUSH2 0xB87 PUSH2 0xB33 JUMP JUMPDEST JUMPDEST DUP3 DUP3 DIV SWAP1 POP SWAP3 SWAP2 POP POP JUMP JUMPDEST PUSH1 0x0 PUSH10 0xFFFFFFFFFFFFFFFFFFFF DUP3 AND SWAP1 POP SWAP2 SWAP1 POP JUMP JUMPDEST PUSH2 0xBB2 DUP2 PUSH2 0xB93 JUMP JUMPDEST DUP2 EQ PUSH2 0xBBD JUMPI PUSH1 0x0 DUP1 REVERT JUMPDEST POP JUMP JUMPDEST PUSH1 0x0 DUP2 MLOAD SWAP1 POP PUSH2 0xBCF DUP2 PUSH2 0xBA9 JUMP JUMPDEST SWAP3 SWAP2 POP POP JUMP JUMPDEST PUSH1 0x0 DUP2 SWAP1 POP SWAP2 SWAP1 POP JUMP JUMPDEST PUSH2 0xBE8 DUP2 PUSH2 0xBD5 JUMP JUMPDEST DUP2 EQ PUSH2 0xBF3 JUMPI PUSH1 0x0 DUP1 REVERT JUMPDEST POP JUMP JUMPDEST PUSH1 0x0 DUP2 MLOAD SWAP1 POP PUSH2 0xC05 DUP2 PUSH2 0xBDF JUMP JUMPDEST SWAP3 SWAP2 POP POP JUMP JUMPDEST PUSH1 0x0 DUP2 MLOAD SWAP1 POP PUSH2 0xC1A DUP2 PUSH2 0x7B9 JUMP JUMPDEST SWAP3 SWAP2 POP POP JUMP JUMPDEST PUSH1 0x0 DUP1 PUSH1 0x0 DUP1 PUSH1 0x0 PUSH1 0xA0 DUP7 DUP9 SUB SLT ISZERO PUSH2 0xC3C JUMPI PUSH2 0xC3B PUSH2 0x6FF JUMP JUMPDEST JUMPDEST PUSH1 0x0 PUSH2 0xC4A DUP9 DUP3 DUP10 ADD PUSH2 0xBC0 JUMP JUMPDEST SWAP6 POP POP PUSH1 0x20 PUSH2 0xC5B DUP9 DUP3 DUP10 ADD PUSH2 0xBF6 JUMP JUMPDEST SWAP5 POP POP PUSH1 0x40 PUSH2 0xC6C DUP9 DUP3 DUP10 ADD PUSH2 0xC0B JUMP JUMPDEST SWAP4 POP POP PUSH1 0x60 PUSH2 0xC7D DUP9 DUP3 DUP10 ADD PUSH2 0xC0B JUMP JUMPDEST SWAP3 POP POP PUSH1 0x80 PUSH2 0xC8E DUP9 DUP3 DUP10 ADD PUSH2 0xBC0 JUMP JUMPDEST SWAP2 POP POP SWAP3 SWAP6 POP SWAP3 SWAP6 SWAP1 SWAP4 POP JUMP JUMPDEST PUSH1 0x0 PUSH2 0xCA6 DUP3 PUSH2 0xBD5 JUMP JUMPDEST SWAP2 POP PUSH2 0xCB1 DUP4 PUSH2 0xBD5 JUMP JUMPDEST SWAP3 POP DUP3 PUSH32 0x7FFFFFFFFFFFFFFFFFFFFFFFFFFFFFFFFFFFFFFFFFFFFFFFFFFFFFFFFFFFFFFF DIV DUP3 GT PUSH1 0x0 DUP5 SGT PUSH1 0x0 DUP5 SGT AND AND ISZERO PUSH2 0xCF0 JUMPI PUSH2 0xCEF PUSH2 0x8BE JUMP JUMPDEST JUMPDEST DUP2 PUSH32 0x8000000000000000000000000000000000000000000000000000000000000000 SDIV DUP4 SLT PUSH1 0x0 DUP5 SLT PUSH1 0x0 DUP5 SGT AND AND ISZERO PUSH2 0xD2D JUMPI PUSH2 0xD2C PUSH2 0x8BE JUMP JUMPDEST JUMPDEST DUP3 PUSH32 0x8000000000000000000000000000000000000000000000000000000000000000 SDIV DUP3 SLT PUSH1 0x0 DUP5 SGT PUSH1 0x0 DUP5 SLT AND AND ISZERO PUSH2 0xD6A JUMPI PUSH2 0xD69 PUSH2 0x8BE JUMP JUMPDEST JUMPDEST DUP3 PUSH32 0x7FFFFFFFFFFFFFFFFFFFFFFFFFFFFFFFFFFFFFFFFFFFFFFFFFFFFFFFFFFFFFFF SDIV DUP3 SLT PUSH1 0x0 DUP5 SLT PUSH1 0x0 DUP5 SLT AND AND ISZERO PUSH2 0xDA7 JUMPI PUSH2 0xDA6 PUSH2 0x8BE JUMP JUMPDEST JUMPDEST DUP3 DUP3 MUL SWAP1 POP SWAP3 SWAP2 POP POP JUMP INVALID LOG2 PUSH5 0x6970667358 0x22 SLT KECCAK256 CALLDATALOAD SGT 0xEB DUP12 0xD2 GASLIMIT 0xD7 LOG2 EQ 0xDF 0xBC SWAP13 MSTORE 0xEC 0xDC ORIGIN 0x5D 0xD6 SLT ORIGIN 0x24 0xE3 0xE4 DUP12 0x26 PC 0xF MSIZE 0xCF 0x23 PUSH22 0x8C64736F6C6343000808003300000000000000000000 "
				},
				"gasEstimates": {
					"creation": {
						"codeDepositCost": "712000",
						"executionCost": "25013",
						"totalCost": "737013"
					},
					"external": {
						"addressToAmount(address)": "2814",
						"fund()": "infinite",
						"funders(uint256)": "5044",
						"minimumUSD()": "307",
						"owner()": "2558",
						"withdraw()": "infinite"
					}
				},
				"methodIdentifiers": {
					"addressToAmount(address)": "3c7e7d28",
					"fund()": "b60d4288",
					"funders(uint256)": "dc0d3dff",
					"minimumUSD()": "3430a88c",
					"owner()": "8da5cb5b",
					"withdraw()": "3ccfd60b"
				}
			},
			"storageLayout": {
				"storage": [
					{
						"astId": 59,
						"contract": "contracts/FundMe.sol:FundMe",
						"label": "funders",
						"offset": 0,
						"slot": "0",
						"type": "t_array(t_address)dyn_storage"
					},
					{
						"astId": 63,
						"contract": "contracts/FundMe.sol:FundMe",
						"label": "addressToAmount",
						"offset": 0,
						"slot": "1",
						"type": "t_mapping(t_address,t_uint256)"
					},
					{
						"astId": 65,
						"contract": "contracts/FundMe.sol:FundMe",
						"label": "owner",
						"offset": 0,
						"slot": "2",
						"type": "t_address"
					}
				],
				"types": {
					"t_address": {
						"encoding": "inplace",
						"label": "address",
						"numberOfBytes": "20"
					},
					"t_array(t_address)dyn_storage": {
						"base": "t_address",
						"encoding": "dynamic_array",
						"label": "address[]",
						"numberOfBytes": "32"
					},
					"t_mapping(t_address,t_uint256)": {
						"encoding": "mapping",
						"key": "t_address",
						"label": "mapping(address => uint256)",
						"numberOfBytes": "32",
						"value": "t_uint256"
					},
					"t_uint256": {
						"encoding": "inplace",
						"label": "uint256",
						"numberOfBytes": "32"
					}
				}
			},
			"userdoc": {
				"kind": "user",
				"methods": {},
				"version": 1
			}
		}
	}
}